:100000000C94F2000C941A010C941A010C941A012D
:100010000C941A010C941A010C941A010C941A01F4
:100020000C941A010C941A010C94D3040C944505F9
:100030000C941A010C941A010C941A010C941A01D4
:100040000C941A010C941A010C941A010C941A01C4
:100050000C941A010C941A010C941A010C94890442
:100060000C941A010C941A010C941A010C941A01A4
:100070000C941A010C941A010C941A010C941A0194
:100080000C941A010C941A010C941A010C941A0184
:100090000C941A010C941A010C941A010C941A0174
:1000A0000C941A010C941A010C941A0196019901EE
:1000B00088018C019001BA01BA01BA019D01A10128
:1000C000A501AB01AF01BA01B501E108E608EB08F3
:1000D000F508FF08490949094909090913091D09D2
:1000E0002709340949093C09080B000202020100F2
:1000F000090400000102020000052400100105248B
:1001000001010104240206052406000107058103FC
:1001100010004009040100020A0000000705020265
:100120004000000705830240000004030904120197
:100130000002EF0201404123368000010102030169
:1001400041726475696E6F204C4C43004172647556
:10015000696E6F204C656F6E6172646F00070605F3
:10016000040100080A0B0C0D090000000024002700
:10017000002A002D00300000000000250028002B80
:10018000002E0031000404040404030405020202EA
:100190000204030202020206060606060604040220
:1001A0000202040404080201104080401020408034
:1001B00040800802040180402010020110801020BD
:1001C0004040200000000200090F0000030401006D
:1001D0000C00000000000000000000000000000013
:1001E0000000750711241FBECFEFDAE0DEBFCDBFE0
:1001F00011E0A0E0B1E0EAE0F4E102C005900D9268
:10020000A633B107D9F721E0A6E3B1E001C01D9202
:10021000A83AB207E1F710E0C2EFD0E004C021979E
:10022000FE010E94F109C13FD107C9F70E94A5074D
:100230000C94030A0C940000FC018091540181117C
:1002400003C08FEF9FEF08959FB7F89482E08093EB
:10025000E9002091F20030E01216130614F421E0B8
:1002600030E02115310559F0289884E68093530138
:100270008091F10080838091F200882319F09FBF64
:10028000C90108958BE68093E800F9CF2FB7F89461
:1002900083E08093E9009091E800892F807295FFB8
:1002A00004C09091F20080E4891B2FBF08958091D3
:1002B0004B0181110DC082E08093470184E080935F
:1002C000480110924A011092490181E080934B014C
:1002D00087E491E00895362F90E0FC01ED53FE4F46
:1002E0004491FC01EC55FE4F2491FC01EB57FE4F6D
:1002F0008491882309F451C04423E1F150E0FA01CC
:100300003197EF30F105B0F5EA5AFF4F0C94F1093F
:10031000909180009F7707C0909180009F7D03C0DF
:1003200090918000977F9093800024C094B59F7730
:1003300002C094B59F7D94BD1DC0909190009F77A1
:1003400007C0909190009F7D03C090919000977F8F
:10035000909390000FC09091C0009F7703C0909140
:10036000C0009F7D9093C00005C09091C200977F10
:100370009093C200E82FF0E0EE0FFF1FE958FE4F08
:10038000A591B4918FB7F894EC91311103C02095E9
:100390002E2301C02E2B2C938FBF0895CF93DF9374
:1003A00090E0FC01EC55FE4F2491FC01EB57FE4F11
:1003B0008491882361F190E0880F991FFC01E7592F
:1003C000FE4FC591D491FC01E958FE4FA591B4911F
:1003D000611109C09FB7F894888120958223888392
:1003E000EC912E230BC0623061F49FB7F8943881F2
:1003F000822F809583238883EC912E2B2C939FBF93
:1004000006C08FB7F894E8812E2B28838FBFDF9129
:10041000CF9108953FB7F8948091430190914401A2
:10042000A0914501B091460126B5A89B05C02F3F7C
:1004300019F00196A11DB11D3FBFBA2FA92F982F0A
:100440008827820F911DA11DB11DBC01CD0142E085
:10045000660F771F881F991F4A95D1F708958F92CD
:100460009F92AF92BF92CF92DF92EF92FF926B0179
:100470007C010E940A024B015C01C114D104E10419
:10048000F104F1F00E940A02DC01CB0188199909FC
:10049000AA09BB09883E9340A105B10570F321E08C
:1004A000C21AD108E108F10888EE880E83E0981E90
:1004B000A11CB11CC114D104E104F10419F7DDCF72
:1004C000FF90EF90DF90CF90BF90AF909F908F9074
:1004D00008954091380150913901209136013091B1
:1004E000370142175307B4F49091E8009570E1F397
:1004F0009091E80092FD19C08093F100809138013D
:100500009091390101968F739927892B19F48EEFF9
:100510008093E80080913801909139010196909381
:1005200039018093380181E0089580E00895CF92E9
:10053000DF92EF92FF920F931F93CF93DF931F925F
:10054000CDB7DEB7182F062FE42E862F880F8E5FCB
:1005500099830E94690283E00E946902F12EC12EF4
:100560009981D92E8C2D8F19801798F4F601E7FE0A
:1005700002C0849101C080810E946902182F80E02E
:100580000E9469028123FFEFCF1ADF0A8111EACFAF
:1005900001C081E00F90DF91CF911F910F91FF90EB
:1005A000EF90DF90CF900895DF92EF92FF920F933C
:1005B0001F93CF93DF93D82E8A017B01E40EF51EA3
:1005C000EB01CE15DF0571F0D7FE03C0FE0184916B
:1005D00001C088810E94690221968111F2CF8FEFBC
:1005E0009FEF01C0C801DF91CF911F910F91FF9044
:1005F000EF90DF9008950F931F93CF93DF931F9297
:10060000CDB7DEB782E0898342E450E068EE70E067
:1006100080E80E94D4020E945701DC0112960D91DD
:100620001C9113970115110569F0D801ED91FC910A
:100630000280F381E02DBE016F5F7F4FC8010995F5
:1006400097FF07C089810F90DF91CF911F910F9184
:100650000895F80100851185E5CF615030F02091B3
:10066000F100FC0120830196F8CF289884E680935E
:1006700053010895CF92DF92EF92FF920F931F9351
:10068000CF93DF936C017A018B01C0E0D0E0CE15EF
:10069000DF0589F0D8016D918D01D601ED91FC91B6
:1006A0000190F081E02DC6010995892B11F47E019E
:1006B00002C02196ECCFC701DF91CF911F910F911E
:1006C000FF90EF90DF90CF9008958F929F92AF921E
:1006D000BF92CF92DF92EF92FF920F931F93CF932F
:1006E000DF935C016B017A0180910B01882309F48F
:1006F0005BC080915401882309F456C080913C016D
:1007000080FF05C08091E00082608093E000E701F7
:1007100010E00AEF83E0882E9AE3992E2097D9F112
:100720000E94460181110AC0015009F43DC061E0F8
:1007300070E080E090E00E942F02F0CF282F30E0A0
:10074000C217D3070CF48C2F4FB7F8948092E900AE
:100750009091E80095FF1DC0282F30E0C21BD30BFD
:10076000F601982F915020F081918093F100FACFFB
:10077000C20ED31E112319F09092E80009C0809197
:10078000E80085FD06C09092E80011E0209709F08E
:1007900010E04FBFC3CF1111C3CF5D9884E68093A3
:1007A0003A011E141F0444F081E090E0F5019383A8
:1007B000828380E090E001C0C701DF91CF911F915B
:1007C0000F91FF90EF90DF90CF90BF90AF909F90F0
:1007D0008F900895CF93DF931F92CDB7DEB76983D3
:1007E000DC01ED91FC910280F381E02D41E050E0CD
:1007F000BE016F5F7F4F09950F90DF91CF910895F4
:1008000083E08093E9008091F200882319F08AE365
:100810008093E80008950E94460190E00895CF93E8
:10082000DF931F92CDB7DEB7FC018485958597FDD8
:1008300005C02FEF3FEF358724870BC0CE0101960F
:100840000E941C01019719F4898190E002C08FEF8A
:100850009FEF0F90DF91CF9108950F931F93CF9348
:10086000DF931F92CDB7DEB78C01FC01848595859F
:1008700097FF0EC0CE0101960E941C01019719F44A
:10088000298130E002C02FEF3FEFF8013587248740
:10089000F801848595850F90DF91CF911F910F917D
:1008A0000895FC018485958597FD0BC09FB7F8944A
:1008B00082E08093E9008091F2009FBF90E0019672
:1008C00008959FB7F89482E08093E9008091F20048
:1008D0009FBF90E00895089580E090E00895BC01E6
:1008E000009791F0FC0101900020E9F73197AF01EA
:1008F000481B590BE0915501F09156010280F3819C
:10090000E02D85E591E0099480E090E008950E9453
:10091000FE091F920F920FB60F9211242F933F934F
:100920008F939F93AF93BF9380913F01909140012C
:10093000A0914101B091420130913E0123E0230F8B
:100940002D3720F40196A11DB11D05C026E8230F07
:100950000296A11DB11D20933E0180933F0190930B
:100960004001A0934101B0934201809143019091D5
:100970004401A0914501B09146010196A11DB11D10
:100980008093430190934401A0934501B0934601A5
:10099000BF91AF919F918F913F912F910F900FBE7B
:1009A0000F901F9018951F920F920FB60F9211245F
:1009B0008F939F938091E1009091E100937F9093BA
:1009C000E10083FF0FC01092E90091E09093EB00EB
:1009D0001092EC0092E39093ED001092540198E095
:1009E0009093F00082FF20C093E09093E9009091F3
:1009F000F200992319F09AE39093E80090913A015C
:100A0000992339F090913A01915090933A019923AA
:100A100089F190915301992339F0909153019150AC
:100A200090935301992341F184FF10C08091E2001B
:100A30008E7E81608093E2008091E1008F7E8093C2
:100A4000E10080913C018E7E806111C080FF16C064
:100A50008091E2008E7E80618093E2008091E100CF
:100A60008E7E8093E10080913C018E7E8160809338
:100A70003C0104C05D9ACDCF289AD6CF9F918F912B
:100A80000F900FBE0F901F9018951F920F920FB6E8
:100A90000F921124CF92DF92EF92FF920F931F9348
:100AA0002F933F934F935F936F937F938F939F9376
:100AB000AF93BF93EF93FF93CF93DF93CDB7DEB7A1
:100AC0006C97DEBFCDBF1092E9008091E80083FFF4
:100AD000EDC168E0CE0145960E942D0382EF809320
:100AE000E8008D8987FF05C09091E80090FFFCCF5A
:100AF00003C09EEF9093E800982F907609F0C6C04F
:100B00009E892F89188D91110CC0803829F480910D
:100B10003D018093F10002C01092F1001092F100AB
:100B200048C1422F50E0512B913051F4811141C105
:100B30004130510509F03DC180913D018D7F0BC0D1
:100B4000933061F4811135C14130510509F031C153
:100B500080913D01826080933D012BC1953041F42D
:100B60008091E80080FFFCCF20682093E30021C142
:100B7000963009F05FC0EB8CFC8C1092E90010926B
:100B8000390110923801123091F51092370110920C
:100B900036010E94FB0299E0BE016F5F7F4FDB01CF
:100BA000E92F1D92EA95E9F799831A8391E09E83D4
:100BB00090EA98879AEF998720913801309139010E
:100BC000275F3F4F3C832B838D831092E900109267
:100BD000390110923801F0923701E092360149E074
:100BE00050E080E00E94D4020E94FB02E2C0F0923A
:100BF0003701E09236010E945701DC011296ED9018
:100C0000FC901397E114F10409F4C0C0D701ED91F1
:100C1000FC910480F581E02DBE016B5E7F4FC70122
:100C20000995009719F00CF0C4C0C7C0F701E08423
:100C3000F184E8CF973009F4C0C0983021F481E006
:100C40008093F100B6C0993009F0B3C0837009F009
:100C5000B4C0EDE0F1E081E021E036E3908199233A
:100C600061F08093E9002093EB0091919093EC0068
:100C70003093ED008F5F873089F78EE78093EA002D
:100C80001092EA008F898093540193C08B8D9C8DC4
:100C90001092E900109239011092380190933701B7
:100CA00080933601898D811156C08E899D89913A34
:100CB00059F4813209F081C047E050E064E071E00E
:100CC00080E00E94D40275C0913209F076C0833270
:100CD00089F4888D90E0982F88272F89822BA0E0B7
:100CE000B0E08093000190930101A0930201B093C2
:100CF00003015FC0803269F48091E80082FFFCCF7D
:100D000067E084E091E00E942D038BEF8093E80080
:100D100006C0823209F04DC08F8980930B0180910B
:100D20003B01882319F0EEEFFAE002C0E0E0F8E0C2
:100D30008091040190910501A0910601B0910701F5
:100D4000803B9440A105B10509F07BC080910B0167
:100D500080FF93C076C00E945701DC0112960D916E
:100D60001C9113970115110541F1D801ED91FC91EA
:100D70000190F081E02DBE016B5E7F4FC8010995A7
:100D8000811117C0F80100851185ECCF113009F4ED
:100D90004EC0133091F48F89882309F445C0823006
:100DA00081F440E860E18CE491E00E94970288239E
:100DB00021F08EEF8093E80079C081E28093EB0010
:100DC00075C0813029F440E86BE080E491E0EDCF1C
:100DD000833099F70E945701DC011296ED90FC9048
:100DE00013978E010F5F1F4F6801E114F10479F032
:100DF000D701ED91FC910680F781E02DB801C70184
:100E00000995080F111DF701E084F184EECFD80198
:100E10001C92F60101900020E9F73197BF016C198F
:100E20007D0940E0C601C1CF6AE271E002C06EE216
:100E300071E06115710509F2FB01449150E080E811
:100E400040CF0FB6F894A895809160008861809398
:100E50006000109260000FBEA895EE3F2AE0F207F6
:100E600039F08091FE0A9091FF0A91838083A1CF8F
:100E70001092FF0A1092FE0A9CCFEE3F8AE0F8071C
:100E800031F0808191819093FF0A8093FE0A87E779
:100E900097E7918380839BE088E10FB6F894A8954B
:100EA000809360000FBE9093600083CF6C960FB666
:100EB000F894DEBF0FBECDBFDF91CF91FF91EF91D0
:100EC000BF91AF919F918F917F916F915F914F9162
:100ED0003F912F911F910F91FF90EF90DF90CF9056
:100EE0000F900FBE0F901F901895CF93DF93E5E5FD
:100EF000F1E01382128288EE93E0A0E0B0E08483F8
:100F00009583A683B78387E191E0918380838FEFF8
:100F10009FEF95878487C5EAD1E082E1888383E1EA
:100F20008A8384E1898361E083E10E94CE0161E0EC
:100F300088810E94CE0160E089810E94CE0161E03B
:100F40008A81DF91CF910C946B01CF93DF93CDB762
:100F5000DEB7A7970FB6F894DEBF0FBECDBF78946B
:100F600084B5826084BD84B5816084BD85B58260AE
:100F700085BD85B5816085BD80916E00816080935F
:100F80006E001092810080918100826080938100C8
:100F900080918100816080938100809180008160D8
:100FA0008093800080919100826080939100809175
:100FB0009100816080939100809190008160809386
:100FC00090008091C10084608093C1008091C10035
:100FD00082608093C1008091C10081608093C100D4
:100FE0008091C30081608093C3008091C0008260C3
:100FF0008093C0008091C20081608093C200809184
:101000007A00846080937A0080917A008260809375
:101010007A0080917A00816080937A0080917A00D2
:10102000806880937A001092540110923D011092D2
:101030003C018091D70081608093D70080EA809343
:10104000D80089B5806189BD89B5826089BD09B440
:1010500000FEFDCF61E070E080E090E00E942F0292
:101060008091D8008F7C80618093D8008091E000CF
:10107000807F8093E0008091E1008E7E8093E1008C
:101080008DE08093E200559A209AEEEFFFE785917C
:1010900094918B3F9C4D19F481E080933B018FEF3D
:1010A0009FEF909362018093610161E08FE00E9465
:1010B000CE0161E08FE00E946B0161E08EE00E9452
:1010C000CE0160E08EE00E946B0185E291E00E941B
:1010D0006F0482E391E00E946F0464EF71E080E0AE
:1010E00090E00E942F0288248A9453E0952EA12C30
:1010F000B12C6AE0C62ED12CE12CF12CE0E6F1E017
:10110000249130917B0023FBFF27F0F9FAA31BA267
:101110008AA19BA145E0880F991F4A95E1F7932F7B
:101120009F7D892B80937B002770206420937C0017
:1011300080917A00806480937A0080917A0086FDA5
:10114000FCCF009178008091790010E0182B2801E5
:10115000012E000C660877082FEF30E0D8010E94BE
:10116000F709A50194010E94A109190161E086E037
:101170002CA33DA34EA35FA30E94CE012CA13DA1B1
:101180004EA15FA1211531054105510511F460E023
:1011900006C02F3F31054105510529F461E086E085
:1011A0000E946B017CC0E9ECF1E0849190E0FC01CD
:1011B0003197EF30F10508F06CC0EB59FF4F0C94FC
:1011C000F10984B5806884BD27BD69C084B580629B
:1011D00084BD28BD64C080918000806880938000B9
:1011E00030938900209388005AC0809180008062EB
:1011F0008093800030938B0020938A0050C08091B0
:10120000800088608093800030938D0020938C0054
:1012100046C0809190008068809390003093990040
:10122000209398003CC08091900080628093900051
:1012300030939B0020939A0032C080919000886088
:101240008093900030939D0020939C0028C0809153
:10125000C00080688093C0008091C0008F7B809325
:10126000C0002093CF001BC08091C000806280939B
:10127000C0002093D00013C08091C200886080938A
:10128000C2008091C2008B7F8093C2002093D20065
:1012900006C0F0E82F1631040CF080CF78CF17FF8E
:1012A00026C0E0915501F09156010190F081E02DAA
:1012B0006DE285E591E0099522273327A9012419DC
:1012C00035094609570919A28E010F5D1F4FCA0142
:1012D000B901A70196010E94C009605DF8016293FF
:1012E0008F01211531054105510589F715C0A3016D
:1012F000920119A28E010F5D1F4FCA01B901A7010A
:1013000096010E94C009605DF80162938F0121156A
:1013100031054105510589F7C8010E946F0482E338
:1013200091E00E946F0464EF71E080E090E00E9421
:101330002F0280E090E0892B09F4E0CE0E940000AB
:10134000DDCE052E97FB1EF400940E94B80957FDD0
:1013500007D00E94C00907FC03D04EF40C94B809D2
:1013600050954095309521953F4F4F4F5F4F0895D1
:1013700090958095709561957F4F8F4F9F4F089501
:10138000A1E21A2EAA1BBB1BFD010DC0AA1FBB1F89
:10139000EE1FFF1FA217B307E407F50720F0A21BFB
:1013A000B30BE40BF50B661F771F881F991F1A9468
:1013B00069F760957095809590959B01AC01BD0192
:1013C000CF010895A29FB001B39FC001A39F700DEC
:1013D000811D1124911DB29F700D811D1124911D3D
:1013E0000895EE0FFF1F0590F491E02D09940E94DF
:1013F000E209B7FF0895821B930B089581E090E006
:0A140000F8940C94030AF894FFCF4F
:10140A00FFFFFFFF00E100000000000000C1808133
:10141A0000000000000000EA0365030B0400045109
:10142A00040F042D044D4158363637352074657340
:06143A0074000D0A000021
:00000001FF
