:10000000B4C10000E2C10000E0C10000DEC1000098
:10001000DCC10000DAC10000D8C10000D6C1000078
:10002000D4C10000D2C10000D0C10000CEC1000088
:10003000CCC10000CAC10000C8C10000C6C1000098
:10004000C4C10000C2C10000C0C10000BEC10000A8
:10005000BCC10000BAC10000B8C100005BC600000E
:10006000B4C10000F9C30000CEC30000AEC100005F
:10007000ACC10000AAC10000A8C10000A6C10000D8
:10008000A4C10000A2C10000A0C100009EC10000E8
:100090009CC100009AC1000098C1000096C10000F8
:1000A00094C1000092C1000090C100008EC1000008
:1000B0008CC100008AC1000088C1000086C1000018
:1000C00084C1000082C1000080C100007EC1000028
:1000D0007CC100007AC1000078C1000076C1000038
:1000E00074C100004505480537053B053F057F0500
:1000F0004C05500556055A055E05640568056C05F6
:100100007F05720576057A05B905BE05C305CD05DF
:10011000D7055006E105E905F105FB0505060F06C3
:100120001E062806500632063C0646064E414E493B
:100130004E495459494E46CDCCCC3D0AD7233C17A5
:10014000B7D13877CC2B329595E6241FB14F0A00F2
:100150000020410000C84200401C4620BCBE4CCAE2
:100160001B0E5AAEC59D7400407A10F35A00A0725F
:100170004E18090010A5D4E80000E87648170000E2
:10018000E40B54020000CA9A3B000000E1F50500B0
:100190000080969800000040420F000000A08601F9
:1001A000000000102700000000E8030000000064C9
:1001B00000000000000A0000000000010000000034
:1001C000002C76D888DC674F0823DFC1DFAE59E109
:1001D000B1B796E5E3E453C63AE651997696E8E678
:1001E000C28426EB898C9B62ED407C6FFCEFBC9C4B
:1001F0009F40F2BAA56FA5F490055A2AF75C936B5D
:100200006CF9676DC11BFCE0E40D47FEF520E6B517
:1002100000D0ED902E0300943577050080841E08F1
:100220000000204E0A000000C80C333333330F980F
:100230006E12831141EF8D2114893BE65516CFFED6
:10024000E6DB18D1844B381BF77C1D901DA4BBE462
:1002500024203284725E228100C9F124ECA1E53DA4
:100260002700000A0B02090C0D0E08070304010009
:10027000000000000000000000000000000000007E
:10028000000000000000000000000000001211103B
:10029000000000000000000000000000000000005E
:1002A0000000000000000000002200250028002BB4
:1002B000002E003100340002010000050108010B8E
:1002C0000100002100240027002A002D0030003307
:1002D0000001010000040107010A010505050507E9
:1002E0000508080808020202020A0A0808040404B1
:1002F00004010101010101010103030303030303DD
:1003000003040707070C0C0C0C0C0C0C0C0202026B
:100310000206060606060606060B0B0B0B0B0B0B5E
:100320000B010210202008081020401020408002FD
:10033000010201080402010102040810204080802B
:1003400040201008040201800402018040201008AF
:100350000402010804020101020408102040800187
:1003600002040810204080001E0D11241FBECFEF94
:10037000D1E2DEBFCDBF00E00CBF12E0A0E0B2E0F2
:10038000E2E1FBE200E00BBF02C007900D92AE3449
:10039000B107D9F723E0AEE4B2E001C01D92AD345D
:1003A000B207E1F711E0C5EBD1E000E006C021970C
:1003B0000109802FFE010E945A13C43BD10780E03F
:1003C0000807A9F7F1D40C9487151ACE0895CF9297
:1003D000DF92EF92FF920F931F93CF93DF936C0105
:1003E0007A018B01C0E0D0E0CE15DF0589F0D8019D
:1003F0006D918D01D601ED91FC910190F081E02D80
:10040000C6011995892B11F47E0102C02196ECCF0B
:10041000C701DF91CF911F910F91FF90EF90DF9077
:10042000CF900895089580E090E00895FC01538DE9
:10043000448D252F30E0842F90E0821B930B5417BE
:1004400010F0CF96089501970895FC01918D828D4B
:10045000981761F0828DDF01A80FB11D5D968C9118
:10046000928D9F5F9F73928F90E008958FEF9FEF23
:100470000895FC01918D828D981731F0828DE80FDF
:10048000F11D858D90E008958FEF9FEF0895FC0199
:10049000918D228D892F90E0805C9F4F821B910966
:1004A0008F73992708958CE592E0F1DF21E0892B85
:1004B00009F420E0822F0895FC01848DDF01A80F4C
:1004C000B11DA35ABF4F2C91848D90E001968F737C
:1004D0009927848FA689B7892C93A089B1898C919B
:1004E00080648C93938D848D981306C00288F38961
:1004F000E02D80818F7D80830895EF92FF920F938E
:100500001F93CF93DF93EC0181E0888F9B8D8C8DBF
:10051000981305C0E889F989808185FD23C0F62EEE
:100520000B8D10E00F5F1F4F0F731127E02E8C8D86
:10053000E8120BC00FB607FCFACFE889F989808171
:1005400085FFF5CFCE01B8DFF2CF8B8DFE01E80F2E
:10055000F11DE35AFF4FF0820B8FEA89FB898081FE
:10056000806207C0EE89FF896083E889F98980810C
:100570008064808381E090E0DF91CF911F910F91A3
:10058000FF90EF900895CF93DF93EC01888D88233F
:10059000C1F0EA89FB89808185FD05C0A889B989F8
:1005A0008C9186FD0EC00FB607FCF5CF808185FFCC
:1005B000F2CFA889B9898C9185FFEDCFCE017CDF80
:1005C000E8CFDF91CF91089580E090E0892B19F07A
:1005D0006ADF811125C080E090E0892B41F080E046
:1005E00090E0892B21F00E94000081111CC080E066
:1005F00090E0892B41F080E090E0892B21F00E946F
:100600000000811113C080E090E0892BA1F080E010
:1006100090E0892B81F00E94000081110AC00895AA
:100620000E940000D8CF0E940000E1CF0E9400008D
:10063000EACF0C94000008950F931F93CF93DF939C
:10064000EC015CD3688779878A879B87E881F98189
:100650000284F385E02DCE01199597FF16C04ED385
:10066000088519852A853B85DC01CB01801B910B10
:10067000A20BB30B0C811D812E813F818017910746
:10068000A207B30718F38FEF9FEFDF91CF911F9170
:100690000F9108950E9473150F931F93CF93DF93CB
:1006A000EC0188819981009729F02A813B812617E6
:1006B000370788F48B016F5F7F4F0E948F1400977C
:1006C00061F0998388831B830A832C813D81232BCE
:1006D00011F4FC01108281E001C080E0DF91CF9134
:1006E0001F910F910895EF92FF920F931F93CF9355
:1006F000DF93EC017B018A01BA01CEDF28813981C9
:1007000081110DC02115310519F0C9010E94F7139F
:10071000198218821D821C821B821A8206C01D83C8
:100720000C83B701C9010E948015CE01DF91CF91E2
:100730001F910F91FF90EF900895EF92FF920F930A
:100740001F93CF93DF93FC012481358161157105DF
:1007500011F480E018C041155105A1F07B01EC01B6
:100760008A01020F131FB80197DF882391F32881B4
:1007700039818C819D81B701820F931F0E94801562
:100780001D830C8381E0DF91CF911F910F91FF902A
:10079000EF900895CF93DF93EC016115710551F04F
:1007A000FB0101900020E9F73197AF01461B570B81
:1007B0009ADF0CC088819981009711F00E94F7138D
:1007C000198218821D821C821B821A82CE01DF913F
:1007D000CF910895FC01808191810C94F713FC0165
:1007E00011821082138212821582148261157105A2
:1007F00049F0FB0101900020E9F73197AF01461B5A
:10080000570B71CF08951F920F920FB60F921124BC
:100810000BB60F922F933F934F935F936F937F93FA
:100820008F939F93AF93BF93EF93FF938CE592E0E9
:1008300043DEFF91EF91BF91AF919F918F917F9197
:100840006F915F914F913F912F910F900BBE0F9041
:100850000FBE0F901F9018951F920F920FB60F9218
:1008600011240BB60F922F938F939F93EF93FF93C7
:10087000E0916C02F0916D028081E0917202F09142
:10088000730282FD12C09081809175028F5F8F7319
:1008900020917602821751F0E0917502F0E0E45A5F
:1008A000FD4F958F8093750201C08081FF91EF917C
:1008B0009F918F912F910F900BBE0F900FBE0F90B5
:1008C0001F901895CF92DF92EF92FF920F931F9394
:1008D000CF93DF93CDB7DEB7AD970FB6F894DEBFF9
:1008E0000FBECDBF6CE472E0CE01889678DF89EF51
:1008F000C82E82E0D82EE12CF12CD6016D917D918D
:100900008D919D916D011BA21AA21DA21CA21FA276
:100910001EA28E010F5F1F4F22E044E00E944E0D89
:10092000BC01CE01829636DF4EA15FA16AA17BA1F8
:10093000CE01889602DFCE0182964CDFB7E0EB163F
:10094000F10409F441C0809119031A8219821C82B2
:100950001B821E821D828AA31BA2BE016E5D7F4F79
:10096000C80118DF4D815E8169817A81CE01889648
:10097000E4DEC8012FDFEFEFEE1AFE0AF8E0EF1613
:10098000F10409F0BACF80913C0390913D03DC0162
:10099000ED91FC914CA55DA568A579A50280F38138
:1009A000E02D1995CE01889615DFAD960FB6F89417
:1009B000DEBF0FBECDBFDF91CF911F910F91FF9092
:1009C000EF90DF90CF90089542E050E06AE472E04B
:1009D000CE018896B2DECFCFE9EFF2E0119211920C
:1009E0001192119283E0E931F807C1F7089590E080
:1009F000FC01EF5DFC4F2491FC01E552FD4F849119
:100A0000882399F090E0880F991FFC01EF53FD4F68
:100A1000A591B491FC01E955FD4F859194918FB753
:100A2000F894EC91E22BEC938FBF0895362F90E071
:100A3000FC01EF59FD4F4491FC01EF5DFC4F249107
:100A4000FC01E552FD4F9491992309F46BC04423B6
:100A500009F455C050E0FA013197E231F10508F090
:100A60004EC08827EE58FF4F8F4F0C945A13809139
:100A700080008F7707C0809180008F7D03C08091B8
:100A80008000877F809380003AC084B58F7702C052
:100A900084B58F7D84BD33C08091B0008F7703C053
:100AA0008091B0008F7D8093B00029C0809190002C
:100AB0008F7707C0809190008F7D03C08091900058
:100AC000877F809390001BC08091A0008F7707C024
:100AD0008091A0008F7D03C08091A000877F8093CC
:100AE000A0000DC0809120018F7707C08091200168
:100AF0008F7D03C080912001877F80932001E92FA3
:100B0000F0E0EE0FFF1FE955FD4FA591B4918FB7AF
:100B1000F894EC91311103C020952E2301C02E2BA7
:100B20002C938FBF08951F93CF93DF93182FEB0162
:100B30005EDF209711F460E004C0CF3FD10531F4AF
:100B400061E0812FDF91CF911F9170CFE12FF0E015
:100B5000EF59FD4FE4914E2F50E0FA013197E23109
:100B6000F10508F09DC08827EC57FF4F8F4F0C947C
:100B70005A1384B5806884BDC7BD97C084B58062B0
:100B800084BDC8BD92C08091800080688093800041
:100B9000D0938900C093880088C0809180008062D3
:100BA00080938000D0938B00C0938A007EC0809198
:100BB0008000886080938000D0938D00C0938C006B
:100BC00074C08091B00080688093B000C093B3007F
:100BD0006CC08091B00080628093B000C093B4007C
:100BE00064C080919000806880939000D0939900B9
:100BF000C09398005AC080919000806280939000CA
:100C0000D0939B00C0939A0050C080919000886060
:100C100080939000D0939D00C0939C0046C080912B
:100C2000A00080688093A0008091A0008F7B8093BB
:100C3000A000D093A900C093A80037C08091A00065
:100C400080628093A000D093AB00C093AA002DC017
:100C50008091A00088608093A000D093AD00C093E5
:100C6000AC0023C080912001806880932001D09344
:100C70002901C093280119C08091200180628093CE
:100C80002001D0932B01C0932A010FC08091200135
:100C9000886080932001D0932D01C0932C0105C062
:100CA000C038D1050CF04CCF46CFDF91CF911F91CA
:100CB00008953FB7F8948091430390914403A09125
:100CC0004503B091460326B5A89B05C02F3F19F0F8
:100CD0000196A11DB11D3FBFBA2FA92F982F8827BC
:100CE000820F911DA11DB11DBC01CD0142E0660F17
:100CF000771F881F991F4A95D1F708952FB7F89449
:100D000060913F03709140038091410390914203B1
:100D10002FBF08951F920F920FB60F9211242F9399
:100D20003F938F939F93AF93BF9380913F03909195
:100D30004003A0914103B091420330913E0323E070
:100D4000230F2D3720F40196A11DB11D05C026E803
:100D5000230F0296A11DB11D20933E0380933F03F4
:100D600090934003A0934103B093420380914303C7
:100D700090914403A0914503B09146030196A11DB3
:100D8000B11D8093430390934403A0934503B09314
:100D90004603BF91AF919F918F913F912F910F90FB
:100DA0000FBE0F901F901895CF93DF93CDB7DEB78E
:100DB000A0970FB6F894DEBF0FBECDBF789484B570
:100DC000826084BD84B5816084BD85B5826085BD47
:100DD00085B5816085BD80916E00816080936E00D5
:100DE00010928100809181008260809381008091C7
:100DF0008100816080938100809180008160809378
:100E000080008091B10084608093B1008091B00037
:100E100081608093B0008091910082608093910006
:100E20008091910081608093910080919000816019
:100E3000809390008091A10082608093A1008091B6
:100E4000A10081608093A1008091A00081608093C7
:100E5000A000809121018260809321018091210175
:100E60008160809321018091200181608093200125
:100E700080917A00846080937A0080917A00826009
:100E800080937A0080917A00816080937A008091CB
:100E90007A00806880937A001092C1008CE592E01D
:100EA00090933D0380933C0380E895E290933B034D
:100EB00080933A03E0916C02F0916D0282E08083AE
:100EC000E0916802F09169021082E0916A02F0916B
:100ED0006B028FEC808310927402E0917002F091AB
:100EE000710286E08083E0916E02F0916F02808152
:100EF00080618083E0916E02F0916F028081886052
:100F00008083E0916E02F0916F028081806880831F
:100F1000E0916E02F0916F0280818F7D8083E0917D
:100F20003C03F0913D038AE090E0A0E0B0E08483D0
:100F30009583A683B7838DE05ADD4EDD812C912CFD
:100F400030EAA32E30E4B32E8092F9029092FA0296
:100F5000A092FB02B092FC02C12CD12C40E8E42EFE
:100F60004FE3F42EC092FD02D092FE02E092FF0207
:100F7000F0920003109201031092020310920303F7
:100F8000109204039FDC28DD8092F9029092FA020D
:100F9000A092FB02B092FC0240E050E060E070E4FE
:100FA0004093FD025093FE026093FF027093000392
:100FB0001092010310920203109203031092040393
:100FC0004D8F5E8F6F8F78A37DDC20900C02309068
:100FD0000D0200910E0210910F028091100290916B
:100FE0001102A0911202B0911302898F9A8FAB8FD8
:100FF000BC8F8090140290901502A0901602B090C1
:101000001702409018025090190260901A027090D6
:101010001B02E2DC4D8D5E8D6F8D78A14093F9024D
:101020005093FA026093FB027093FC02C092FD029F
:10103000D092FE02E092FF02F09200034092010380
:10104000509202036092030370920403809205039E
:1010500090920603A0920703B0920803298D3A8D5F
:101060004B8D5C8D2093090330930A0340930B034F
:1010700050930C03B101330C880B990B0E94B611ED
:1010800060930D0370930E0380930F0390931003EE
:10109000B801110F880B990B0E94B61160931103D0
:1010A0007093120380931303909314030BDC00914D
:1010B0004E0210914F028091000290910102A09186
:1010C0000202B0910302898F9A8FAB8FBC8F809000
:1010D000040290900502A0900602B0900702409092
:1010E00008025090090260900A0270900B0274DCB2
:1010F00080E090E0A0E4B0E48093F9029093FA02DB
:10110000A093FB02B093FC02C092FD02D092FE02BB
:10111000E092FF02F092000340920103509202031A
:101120006092030370920403809205039092060379
:10113000A0920703B0920803298D3A8D4B8D5C8DE8
:101140002093090330930A0340930B0350930C033D
:10115000B801110F880B990B0E94B61160930D0313
:1011600070930E0380930F0390931003ABDB0091F9
:1011700050021091510280911C0290911D02A09189
:101180001E02B0911F02898F9A8FAB8FBC8F809007
:10119000200290902102A0902202B0902302409061
:1011A000240250902502609026027090270214DCE1
:1011B000C092F902D092FA02E092FB02F092FC0295
:1011C000C092FD02D092FE02E092FF02F092000374
:1011D0004092010350920203609203037092040351
:1011E0008092050390920603A0920703B092080331
:1011F000298D3A8D4B8D5C8D2093090330930A0322
:1012000040930B0350930C03B801110F880B990BFB
:101210000E94B61160930D0370930E0380930F0329
:10122000909310034FDB80913C0390913D03DC01D0
:10123000ED91FC910084F185E02D1995892B09F43D
:1012400040C300913C0310913D036CE472E0CE0179
:101250004396C5DAC801F0D997FD0BC089831A827D
:1012600041E050E0BE016F5F7F4FCE01439665DAEB
:10127000F1CF6CE472E0CE010D96B1DA2AE1622E74
:1012800023E0722E00E010E018861F821A8619866D
:101290001C861B866B897C896115710529F04F8935
:1012A000588DCE0107961FDACB84DC84B6016150DD
:1012B0007109EF80F8848090190320E030E08FEF0F
:1012C0009FEFE0E0F0E040E050E0B22EA32E621786
:1012D000730734F10417150734F12C153D0540F45C
:1012E000E114F10429F0D701A20FB31F9C9001C0B3
:1012F000912CD9011196981431F02617370719F05F
:10130000B82EA92E09C04F5F5F4FFC0131962617FA
:10131000370711F4BA2EAB2E9D018B2D9A2DD5CF08
:10132000041715074CF57C016F018E179F0710F409
:101330006C017F016CE472E0CE01019650DA8B857E
:101340009C85C816D906E8F48E159F0508F47C0123
:10135000EF81F885EE0DFF1DB08010826F817885DA
:101360006C0D7D1DCE01019615DA8F819885FC01EB
:10137000EE0DFF1DB08205C06CE472E0CE01019657
:101380002EDA8D859E850097A9F069817A81611595
:10139000710571F04F8558892D813E8142175307A1
:1013A00038F00E9480158D819E819A8B898B12C0A6
:1013B0000E94F71389819A819E878D878B819C81FA
:1013C000988B8F878D819E819A8B898B1A82198247
:1013D0001C821B821E821D82CE010196FBD9CE018A
:1013E0000796F8D98D859E85009711F0CBD303C061
:1013F00060E070E0CB01F30161937193819391936D
:101400003F010F5F1F4F0830110509F03DCFCE019E
:101410000D96E0D9CE014396DDD960911A03709103
:101420001B0380911C0390911D030E9429136230BD
:10143000710509F483C03CF46115710579F06130E0
:101440007105F1F03EC26430710509F4BAC10CF4C3
:1014500029C16530710509F418C233C260912603B1
:101460007091270380912803909129030E942913EA
:101470006D33774009F025C281E08093520221C28A
:1014800060911E0370911F038091200390912103AE
:101490000E9429136130710509F013C240902203A4
:1014A00050902303609024037090250340922402FF
:1014B00050922502609226027092270280902603A5
:1014C00090902703A0902803B090290380922002D7
:1014D00090922102A0922202B0922302C0902A038D
:1014E000D0902B03E0902C03F0902D03C0921C02AF
:1014F000D0921D02E0921E02F0921F0260912E0314
:1015000070912F0380913003909131030E94291331
:1015100070935102609350026F8F78A38D8F9E8FCE
:101520005BDA20E030E040E85FE32093F90230939B
:10153000FA024093FB025093FC0213C160911E0318
:1015400070911F0380912003909121030E94291321
:101550006130710509F0B5C140902203509023031A
:101560006090240370902503409218025092190253
:1015700060921A0270921B028090260390902703BB
:10158000A0902803B0902903809214029092150233
:10159000A0921602B0921702C0902A03D0902B039B
:1015A000E0902C03F0902D03C0921002D092110213
:1015B000E0921202F09213026091320370913303B1
:1015C00080913403909135030E942913698F7A8F9B
:1015D0008B8F9C8F498D5A8D50930F0240930E0232
:1015E00060912E0370912F0380913003909131030D
:1015F0000E94291370930D0260930C026F8F78A3E1
:101600008D8F9E8FE9D920E030E040E050E42093B8
:10161000F9023093FA024093FB025093FC0220E05F
:1016200030E040E85FE32093FD023093FE024093F8
:10163000FF02509300034092010350920203609214
:101640000303709204038092050390920603A09214
:101650000703B0920803C0920903D0920A03E092F4
:101660000B03F0920C036F8D78A1072E000C880BF2
:10167000990B7CD660930D0370930E0380930F0338
:1016800090931003498D5A8DBA01550F880B990B11
:101690006DD660931103709312038093130390939C
:1016A0001403F1C060911E0370911F038091200309
:1016B00090912103CED76130710509F002C14090AD
:1016C00022035090230360902403709025034092DE
:1016D00008025092090260920A0270920B028090F6
:1016E000260390902703A0902803B09029038092AE
:1016F000040290920502A0920602B0920702C090E6
:101700002A03D0902B03E0902C03F0902D03C0927D
:101710000002D0920102E0920202F0920302609174
:101720002E0370912F03809130039091310391D754
:1017300070934F0260934E026F8F78A38D8F9E8FB0
:101740004BD920E030E040E450E42093F90230939C
:10175000FA024093FB025093FC0220E030E040E8A4
:101760005FE32093FD023093FE024093FF0250930B
:1017700000034092010350920203609203037092AF
:1017800004038092050390920603A0920703B0928F
:101790000803C0920903D0920A03E0920B03F0926F
:1017A0000C036F8D78A1072E000C880B990BDED5EA
:1017B00060930D0370930E0380930F0390931003B7
:1017C00062C060911E0370911F038091200390916D
:1017D00021033FD76130710519F16230710509F0BD
:1017E00070C0609122037091230380912403909133
:1017F00025032FD76B017C0188E095D9EDD880E0D7
:1018000090E0A0E8B0E48093F9029093FA02A093EC
:10181000FB02B093FC0220E030E040E050E41EC048
:1018200060912203709123038091240390912503FA
:1018300010D76B017C0187E076D9CED880E090E0AC
:10184000A0E8B0E48093F9029093FA02A093FB021F
:10185000B093FC0220E030E040E85FE32093FD021B
:101860003093FE024093FF0250930003B601DD0C5B
:10187000880B990B7BD560930103709302038093CF
:101880000303909304031ED81CC060911E03709143
:101890001F038091200390912103DBD661307105F5
:1018A00081F460912203709123038091240390912D
:1018B0002503CFD6672B11F061E001C060E08DE019
:1018C000B5D81CDA009157021091580220915902A4
:1018D00030915A02DC01CB01801B910BA20BB30BA0
:1018E000843F9140A105B10508F467C03FD14B0189
:1018F0005C013CD1C0902402D0902502E0902602E9
:10190000F09027026F8F78A38D8F9E8F65D820E08F
:1019100030EC41E754E42093F9023093FA0240930B
:10192000FB025093FC0220E030E040E85FE32093AC
:10193000FD023093FE024093FF0250930003C092D9
:101940000503D0920603E0920703F092080399E1A1
:10195000C92ED12CE12CF12C6F8D78A18D8D9E8D0F
:10196000A701960119D6675E7F4F8F4F9F4FFED418
:101970006093010370930203809303039093040325
:10198000C501B401A701960107D6675E7F4F8F4F4F
:101990009F4FECD46093090370930A0380930B0369
:1019A00090930C030E946204A9D96093570270932C
:1019B00058028093590290935A02809152028823D0
:1019C000D1F145E050E064E472E08CE592E00E94E1
:1019D000E70142E050E06AE472E08CE592E00E94A8
:1019E000E70167D94B015C0184EFC82EDD24D39455
:1019F000E12CF12C5ED9DC01CB0188199909AA09E7
:101A0000BB09883E9340A105B10558F031E0C31AE7
:101A1000D108E108F10848EE840E43E0941EA11CB1
:101A2000B11CC114D104E104F10421F7E0E0F0E0BD
:101A30001995109252020E94E402F5CBECE5F2E017
:101A40001382128288EE93E0A0E0B0E08483958355
:101A5000A683B78386E392E09183808385EC90E050
:101A60009587848784EC90E09787868780EC90E068
:101A7000918B808B81EC90E0938B828B82EC90E059
:101A8000958B848B86EC90E0978B868B118E128ED3
:101A9000138E148E89E0809319030895EF920F93AB
:101AA0001F93CF93DF93E80147FD02C034E001C0EC
:101AB00034E1E42F440FFF0BF7FF03C0F195E195EC
:101AC000F109E32E022F2E2FAE015FD0CE01DF9160
:101AD000CF911F910F91EF9008958F929F92AF92A7
:101AE000BF92CF92DF92EF92FF92CF93DF93EC0100
:101AF000688179818A819B816115710581059105D4
:101B000021F464E279ED8BE597E02DE133EF41E0DC
:101B100050E042D549015A019B01AC01A7EAB1E46A
:101B200057D56B017C01ACEEB4EFA50194015CD5F7
:101B3000DC01CB018C0D9D1DAE1DBF1DB7FF03C089
:101B40000197A109B04888839983AA83BB83BC010C
:101B5000CD019F77DF91CF91FF90EF90DF90CF90F5
:101B6000BF90AF909F908F900895B7CF88E292E09A
:101B7000B4CF609328027093290280932A02909335
:101B80002B020895662777278DC14F925F926F923F
:101B90007F929F92AF92BF92CF92DF92EF92FF928D
:101BA0000F931F93CF93DF93CDB7DEB729970FB66F
:101BB000F894DEBF0FBECDBF6A01122FB02E2BE30B
:101BC000201720F0FF24F394F00E02C0BCE3FB2E9C
:101BD0000F2D27E0AE014F5F5F4FCAD2AC01898164
:101BE000982F9970913031F0E1FC06C0E0FE06C0FC
:101BF00090E205C09DE203C09BE201C090E0EE2DA3
:101C0000E07183FF3CC0911102C083E001C084E019
:101C1000811718F4212F281B01C020E0E1110BC00F
:101C2000F601822F30E2882319F031938150FBCFE7
:101C3000C20ED11C20E0992329F0D6019C93F60115
:101C400031966F01C6010396E2FE0AC03EE4D6015A
:101C50003C9341E411964C93119712963C9306C025
:101C60003EE6F601308341E641833283FC01322FA8
:101C700040E2332309F442C041933150FACF82FF4E
:101C800044C0911102C083E001C084E0811718F4C0
:101C9000212F281B01C020E0E1110BC0F601822F8B
:101CA00030E2882319F031938150FBCFC20ED11C52
:101CB00020E0992329F0D6019C93F60131966F011B
:101CC000C6010396E2FE0BC039E4D6013C933EE424
:101CD00011963C93119736E412963C9307C039E66F
:101CE000F60130833EE6318336E63283FC01322F43
:101CF00040E2332319F041933150FBCFFC01E20F56
:101D0000F11D10828EEF9FEFB7C0F1E0911101C07D
:101D1000F0E06F2F70E01416150624F49A012F5F7F
:101D20003F4F02C021E030E0260F371FBB2029F0D3
:101D30006B2D70E06F5F7F4F02C060E070E0260F98
:101D4000371F612F70E0261737071CF4121B212F55
:101D500001C020E03E2D387159F4D601322F60E2E7
:101D6000332319F06D933150FBCFC20ED11C20E00C
:101D7000FF2331F0D6019C93B6016F5F7F4F6B015B
:101D8000E1110BC0F601922F30E3992319F0319342
:101D90009150FBCFC20ED11C20E09F2D940F3A81B1
:101DA000782F7071A72E84FF03C0313309F491504E
:101DB000191624F4993018F098E001C091E0E42F4E
:101DC000852F57FF02C0E0E080E06E2F782FE0E023
:101DD000F0E0AEE29A2E3A01691A71082A01461A19
:101DE000570A0B2D10E01195019511096F3F8FEFE8
:101DF000780729F4D6019C92C60101966C0146171A
:101E0000570784F0661677066CF47F01E40CF51C26
:101E1000A1E0B0E0AC0FBD1FEA0EFB1ED70111968A
:101E2000BC9002C090E3B92E615071093196C60191
:101E300001967C016017710724F0D601BC926C01F9
:101E4000D5CF6417750741F4363320F4353321F4C8
:101E5000A11002C081E3B82EF601B082F701822FF3
:101E600090E2882319F091938150FBCFF701E20FA4
:101E7000F11D108280E090E029960FB6F894DEBF45
:101E80000FBECDBFDF91CF911F910F91FF90EF90CB
:101E9000DF90CF90BF90AF909F907F906F905F90BA
:101EA0004F9008956F927F928F929F92AF92BF92C0
:101EB000CF92DF92EF92FF920F931F93CF93DF9316
:101EC000EC017B016115710519F0DB018D939C9389
:101ED0008E010F5F1F4F7880872D90E021D2892BD4
:101EE00011F0E801F5CFBDE27B1205C00F5F1F4F77
:101EF0007980C1E008C0EBE27E1204C08E010E5F63
:101F00001F4F7980C0E06801F1E0CF1AD10843E0AB
:101F100050E064E371E0C6010BD2892BE9F468015B
:101F200022E0C20ED11C45E050E06FE271E0C60134
:101F3000FFD1892B21F4680187E0C80ED11CE11480
:101F4000F10419F0D701CD92DC92C111F9C060E023
:101F500070E080E89FE7FDC043E050E06CE271E094
:101F6000C601E6D1892B51F4E114F10409F4EDC066
:101F70000E5F1F4FF70111830083E7C0680160E027
:101F800070E0CB0100E010E0F601D0EDD70DDA30C3
:101F900050F52C2F2260622E2C2F2870C2FF05C016
:101FA000211127C00F5F1F4F24C0222311F00150C1
:101FB0001109A5E0B0E09B01AC010AD34B015C0123
:101FC000880C991CAA1CBB1CC501B4016D0F711DA6
:101FD000811D911D6839A9E97A078A07A9E19A0745
:101FE00040F0C66005C0DE3F51F4C3FD44C0C86088
:101FF0006C2EBFEFCB1ADB0A7080C62DC5CF2D2FFC
:102000002F7D2531C1F540814D3211F4C06106C0EC
:102010004B3221F0319621E030E006C03296D601F5
:1020200011964C9122E030E0A0EDA40FAA3018F0F8
:10203000E21BF30B20C040E050E04038BCE05B07FF
:102040005CF49A01220F331F220F331F420F531FDC
:10205000440F551F4A0F511D3196DF0111972C91E6
:10206000A0EDA20FAA3048F3C4FF03C051954195DB
:102070005109040F151FC1FF07C0E114F10421F03D
:102080003197D701ED93FC936FD1C370C33019F032
:102090006B017C0106C06B017C01F7FAF094F7F844
:1020A000F09420E030E0A901C701B60159D188239E
:1020B00009F443C017FF06C0119501951109CBE43F
:1020C000D1E002C0C3E6D1E05E01B8E1AB1AB108CD
:1020D0004601BE2DAF2D90E2E92EF12C0E151F0505
:1020E0007CF0FE012591359145915491B4018B2FDF
:1020F0009A2F9BD14B01B82FA92F0E191F09EECF94
:102100002497F594E794CA15DB0541F76401EB2E9B
:10211000FA2E8E2D880F8F2D881F8F3F41F020E0E3
:1021200030E0A901C701B6011BD1811106C082E2CE
:1021300090E09093480380934703C701B60109C01C
:1021400060E070E080E89FEF04C060E070E080EC49
:102150009FE7DF91CF911F910F91FF90EF90DF905C
:10216000CF90BF90AF909F908F907F906F90089589
:10217000283008F027E03327DA01990F311D87FD59
:10218000916000966105710539F432602E5F3D93D0
:1021900030E32A95E1F708959F3F30F080387105CC
:1021A000610509F03C5F3C5F3D93913008F0806829
:1021B000911DDF93CF931F930F93FF92EF92192FEF
:1021C000987F9695E92F96959695E90FFF27EF53FF
:1021D000FE4F99273327EE24FF24A701E70105903E
:1021E0000894079428F4360FE71EF81E491F511D66
:1021F000660F771F881F991F0694A1F70590079413
:1022000028F4E70EF81E491F561FC11D770F881FBF
:10221000991F661F0694A1F70590079428F4F80EFD
:10222000491F561FC71FD11D880F991F661F771F93
:102230000694A1F70590079420F4490F561FC71F75
:10224000D81F990F661F771F881F0694A9F78491DE
:102250001095177041F0D695C79557954795F79407
:10226000E7941A95C1F7E7E6F1E0689415901591A7
:1022700035916591959105907FE27395E118F10A8A
:10228000430B560BC90BD009C0F7E10CF11E431FDD
:10229000561FC91FD01D7EF4703311F48A95E6CF06
:1022A000E894015030F0080F0AF40027021708F4F0
:1022B000202F2395022F7A3328F079E37D932A95F6
:1022C000E9F710C07D932A9589F60694979567954E
:1022D000379517951794E118F10A430B560BC90B64
:1022E000D00998F023957E9173957A3308F070E3C6
:1022F0007C932013B8F77E9170617D9330F08395C5
:1023000071E37D9370E32A95E1F71124EF90FF903C
:102310000F911F91CF91DF91992787FD9095089597
:102320009111E6C0803219F089508550D0F7089598
:10233000FB01DC014150504088F08D9181341CF04C
:102340008B350CF4805E659161341CF06B350CF4B8
:10235000605E861B611171F3990B0895881BFCCF99
:1023600040D008F481E00895E89409C097FB3EF45A
:1023700090958095709561957F4F8F4F9F4F9923D2
:10238000A9F0F92F96E9BB279395F6958795779550
:102390006795B795F111F8CFFAF4BB0F11F460FF10
:1023A0001BC06F5F7F4F8F4F9F4F16C0882311F068
:1023B00096E911C0772321F09EE8872F762F05C07C
:1023C000662371F096E8862F70E060E02AF09A9517
:1023D000660F771F881FDAF7880F9695879597F90C
:1023E0000895990F0008550FAA0BE0E8FEEF1616A6
:1023F0001706E807F907C0F012161306E407F507F9
:1024000098F0621B730B840B950B39F40A2661F06C
:10241000232B242B252B21F408950A2609F4A1400F
:10242000A6958FEF811D811D08950BD07BC06CD0C8
:1024300028F071D018F0952309F05DC062C0112416
:10244000A5C081D0A0F3959FD1F3950F50E0551F03
:10245000629FF001729FBB27F00DB11D639FAA27F9
:10246000F00DB11DAA1F649F6627B00DA11D661F48
:10247000829F2227B00DA11D621F739FB00DA11D69
:10248000621F839FA00D611D221F749F3327A00D23
:10249000611D231F849F600D211D822F762F6A2FBF
:1024A00011249F5750408AF0E1F088234AF0EE0F44
:1024B000FF1FBB1F661F771F881F91505040A9F751
:1024C0009E3F510570F017C061C05F3FECF3983E2E
:1024D000DCF3869577956795B795F795E7959F5FB8
:1024E000C1F7FE2B880F911D9695879597F9089552
:1024F00099278827089597F99F6780E870E060E042
:1025000008959FEF80EC089500240A94161617068C
:1025100018060906089500240A94121613061406D4
:1025200005060895092E0394000C11F4882352F037
:10253000BB0F40F4BF2B11F460FF04C06F5F7F4FEF
:102540008F4F9F4F089557FD9058440F551F59F0D6
:102550005F3F71F04795880F97FB991F61F09F3F90
:1025600079F087950895121613061406551FF2CFB9
:102570004695F1DF08C0161617061806991FF1CF09
:1025800086957105610508940895E894BB27662730
:102590007727CB0197F90895052E97FB16F4009441
:1025A0000FD057FD05D024D007FC02D046F408C058
:1025B00050954095309521953F4F4F4F5F4F08956F
:1025C00090958095709561957F4F8F4F9F4F08959F
:1025D00031D0A59F900DB49F900DA49F800D911DAB
:1025E00011240895B7FFF4CFF3DF821B930B0895F6
:1025F000A1E21A2EAA1BBB1BFD010DC0AA1FBB1F07
:10260000EE1FFF1FA217B307E407F50720F0A21B78
:10261000B30BE40BF50B661F771F881F991F1A94E5
:1026200069F760957095809590959B01AC01BD010F
:10263000CF010895A29FB001B39FC001A39F700D69
:10264000811D1124911DB29F700D811D1124911DBA
:10265000089504D06894B11199CF08957CDF88F073
:102660009F5790F0B92F9927B751A0F0D1F0660F7E
:10267000771F881F991F1AF0BA95C9F712C0B13099
:1026800081F083DFB1E0089580CF672F782F88270E
:10269000B85F39F0B93FCCF3869577956795B395D8
:1026A000D9F73EF490958095709561957F4F8F4F47
:1026B0009F4F0895EE0FFF1F881F8BBF0790F69165
:1026C000E02D1994CF93DF938230910510F482E0CE
:1026D00090E0E0914B03F0914C0320E030E0C0E04B
:1026E000D0E0309711F14081518148175907C0F06F
:1026F0004817590761F482819381209719F09B83D1
:102700008A832BC090934C0380934B0326C02115E2
:10271000310519F04217530718F49A01BE01DF0181
:10272000EF010280F381E02DDCCF2115310509F1A5
:10273000281B390B2430310590F412968D919C9111
:1027400013976115710521F0FB019383828304C007
:1027500090934C0380934B03FD01329644C0FD01DE
:10276000E20FF31F81939193225031092D933C93F3
:102770003AC02091490330914A03232B41F4209120
:102780002E0230912F0230934A0320934903209167
:102790002C0230912D022115310541F42DB73EB7A1
:1027A0004091300250913102241B350BE0914903D6
:1027B000F0914A03E217F307A0F42E1B3F0B2817F2
:1027C000390778F0AC014E5F5F4F2417350748F0AA
:1027D0004E0F5F1F50934A03409349038193919397
:1027E00002C0E0E0F0E0CF01DF91CF9108950F93B8
:1027F0001F93CF93DF93009709F48CC0FC013297AD
:102800001382128200914B0310914C0301151105A4
:1028100081F420813181820F931F209149033091EF
:102820004A032817390779F5F0934A03E0934903DF
:1028300071C0D80140E050E0AE17BF0750F41296C7
:102840002D913C911397AD012115310509F1D90165
:10285000F3CF9D01DA013383228360817181860F7A
:10286000971F8217930769F4EC0128813981260F9D
:10287000371F2E5F3F4F318320838A819B81938353
:102880008283452B29F4F0934C03E0934B0342C021
:102890001396FC93EE931297ED01499159919E0185
:1028A000240F351FE217F30771F480819181840FA3
:1028B000951F029611969C938E9382819381139615
:1028C0009C938E931297E0E0F0E0D80112968D91E0
:1028D0009C911397009719F0F8018C01F6CF8D9118
:1028E0009C9198012E5F3F4F820F931F20914903C7
:1028F00030914A032817390769F4309729F4109268
:102900004C0310924B0302C01382128210934A03AD
:1029100000934903DF91CF911F910F9108956F921A
:102920007F928F929F92AF92BF92CF92DF92EF925F
:10293000FF920F931F93CF93DF93EC01009781F4E5
:10294000CB01DF91CF911F910F91FF90EF90DF901E
:10295000CF90BF90AF909F908F907F906F90B2CEAE
:10296000FC01E60FF71F9C0122503109E217F30723
:1029700008F4A8C0D9010D911C91119706171707EB
:10298000A8F00530110508F49BC0C801049786170C
:10299000970708F495C002501109061B170B019305
:1029A00011936D937C93CF0122DF8AC05B01A01A43
:1029B000B10A4C01800E911EA0914B03B0914C03C3
:1029C00040E050E0E12CF12C109709F44AC0A81522
:1029D000B905D1F56D907C901197630182E0C80E26
:1029E000D11CCA14DB0480F1A3014A195B096A01F6
:1029F00082E0C80ED11C1296BC9012971396AC912F
:102A0000B5E0CB16D10440F0B282A383518340835A
:102A1000D9016D937C930AC00E5F1F4FC301800FD5
:102A2000911FF90191838083EB2DFA2FE114F104BA
:102A300031F0D7011396FC93EE93129741C0F093B7
:102A40004C03E0934B033CC08D919C911197481728
:102A5000590708F4AC017D0112960D90BC91A02D90
:102A6000B3CF8091490390914A0388159905E1F409
:102A700046175707C8F480912C0290912D020097B9
:102A800041F48DB79EB74091300250913102841BC2
:102A9000950BE817F907B0F4F0934A03E093490364
:102AA000F901718360830CC0CB010CDE7C010097BF
:102AB00049F0A801BE011BD0CE0199DEC70104C0B8
:102AC000CE0102C080E090E0DF91CF911F910F9185
:102AD000FF90EF90DF90CF90BF90AF909F908F903E
:102AE0007F906F90089581E090E0F89410C0FB0112
:102AF000DC0102C001900D9241505040D8F708957A
:102B0000FB01DC0101900D920020E1F70895F8949B
:022B1000FFCFF5
:102B12000000A041CDCCCC3D0000204101000500C9
:102B2200000000400000003F000000400000A04004
:102B32000000C841000048420100000000004D03AF
:102B42008000000000007D02E7011602C302470276
:0E2B5200250239025265736574000D0A0000F9
:00000001FF
