:1000000069C1000097C1000095C1000093C10000C4
:1000100091C100008FC100008DC100008BC10000A4
:1000200089C1000087C1000085C1000083C10000B4
:1000300081C100007FC100007DC100007BC10000C4
:1000400079C1000077C1000075C1000073C10000D4
:1000500071C100006FC100006DC10000DBC600006F
:1000600069C1000022C40000F7C3000063C10000A2
:1000700061C100005FC100005DC100005BC1000004
:1000800059C1000057C1000055C1000053C1000014
:10009000BAC300008FC300004DC100004BC1000077
:1000A00049C1000047C1000045C1000043C1000034
:1000B00041C100003FC100003DC100003BC1000044
:1000C00039C1000037C1000035C1000033C1000054
:1000D00031C100002FC100002DC100002BC1000064
:1000E00029C100005C0A610A660A700A7A0AF30AEA
:1000F000840A8C0A940A9E0AA80AB20AC10ACB0A88
:10010000F30AD50ADF0AE90A9A049D048C049004D4
:100110009604D404A104A504AB04AF04B304B90449
:10012000BD04C104D404C704CB04CF047365726951
:10013000616C5F6F66660073657269616C5F6F6E9C
:10014000006465736C69676172003E003B00706516
:100150007269646F5F637074003E003B0061747588
:10016000616C697A6163616F5F7465726D6F7061F4
:1001700072003E003B00617475616C697A61636175
:100180006F5F73657269616C003E00250076656E75
:10019000746F696E6861003E00250061717565636A
:1001A00065646F720040003E0000002100240027BB
:1001B000002A002D00300033000101000004010777
:1001C000010A0100002200250028002B002E00312A
:1001D00000340002010000050108010B01000020AD
:1001E000002300260029002C002F0032000001000F
:1001F00000030106010901050505050705080808B2
:1002000008020202020A0A080804040404010101A7
:1002100001010101010303030303030303040707AF
:10022000070C0C0C0C0C0C0C0C020202020606064D
:1002300006060606060B0B0B0B0B0B0B0B01021035
:1002400020200808102040102040800201020108F0
:1002500004020101020408102040808040201008A0
:1002600004020180040201804020100804020108F9
:100270000402010102040810204080010204081059
:1002800020408000000A0B02090C0D0E0807030431
:10029000010000000000000000000000000000005D
:1002A000000000000000000000000000000000123C
:1002B000111000000000000000000000000000001D
:1002C000000000000000000000234E414E2300000B
:1002D000770C760C11241FBECFEFD1E2DEBFCDBF6D
:1002E00000E00CBF12E0A0E0B2E0E2E6F3E200E0E2
:1002F0000BBF02C007900D92AE33B107D9F723E0D0
:10030000AEE3B2E001C01D92AF3AB207E1F711E0EF
:10031000C9E6D1E000E006C021970109802FFE0167
:100320000E944A0FC836D10780E00807A9F7BCD55C
:100330000C94A01165CECF92DF92EF92FF920F93B3
:100340001F93CF93DF936C017A018B01C0E0D0E063
:10035000CE15DF0589F0D8016D918D01D601ED91A3
:10036000FC910190F081E02DC6011995892B11F4C3
:100370007E0102C02196ECCFC701DF91CF911F9182
:100380000F91FF90EF90DF90CF900895FC01A0892E
:10039000B1898C91A689B78982FD0FC09C91818D0E
:1003A0008F5F8F73228D821749F0218DDF01A20F9D
:1003B000B11D5D969C93818F08958C910895089549
:1003C00080E090E00895FC01538D448D252F30E0AE
:1003D000842F90E0821B930B541710F0CF96089552
:1003E00001970895FC01918D828D981761F0828D9F
:1003F000DF01A80FB11D5D968C91928D9F5F9F7359
:10040000928F90E008958FEF9FEF0895FC01918DFA
:10041000828D981731F0828DE80FF11D858D90E067
:1004200008958FEF9FEF0895FC01918D228D892F04
:1004300090E0805C9F4F821B91098F7399270895EC
:1004400081E692E0F1DF21E0892B09F420E0822FA0
:1004500008958EEF92E0E8DF21E0892B09F420E097
:10046000822F0895FC01848DDF01A80FB11DA35ACE
:10047000BF4F2C91848D90E001968F739927848FC4
:10048000A689B7892C93A089B1898C9180648C93BB
:10049000938D848D981306C00288F389E02D8081A6
:1004A0008F7D80830895EF92FF920F931F93CF93D8
:1004B000DF93EC0181E0888F9B8D8C8D981305C0B4
:1004C000E889F989808185FD23C0F62E0B8D10E027
:1004D0000F5F1F4F0F731127E02E8C8DE8120BC09A
:1004E0000FB607FCFACFE889F989808185FFF5CF3F
:1004F000CE01B8DFF2CF8B8DFE01E80FF11DE35A7C
:10050000FF4FF0820B8FEA89FB898081806207C0F0
:10051000EE89FF896083E889F9898081806480831E
:1005200081E090E0DF91CF911F910F91FF90EF90CC
:100530000895CF93DF93EC01888D8823C1F0EA8979
:10054000FB89808185FD05C0A889B9898C9186FDCC
:100550000EC00FB607FCF5CF808185FFF2CFA889CA
:10056000B9898C9185FFEDCFCE017CDFE8CFDF919B
:10057000CF91089580E090E0892B19F06ADF811116
:1005800020C080E090E0892B19F05ADF81111CC057
:1005900080E090E0892B41F080E090E0892B21F011
:1005A0000E940000811113C080E090E0892BA1F02F
:1005B00080E090E0892B81F00E94000081110AC048
:1005C00008950E940000DDCF0E940000E1CF0E944C
:1005D0000000EACF0C94000008950E946911FC010C
:1005E00080819181009711F00C94F00C60E070E034
:1005F000CB010895FC0124813581FB0144815581A3
:100600002417350721F5FC0180819181FB01608170
:100610007181009719F061157105A1F461157105DB
:1006200049F0232BB1F0FB01808190E091958195F9
:1006300091090AC0009769F0232B59F0FC018081D1
:1006400090E002C00E94761121E0892B19F020E091
:1006500001C021E0822F08950F931F93CF93DF9362
:10066000EC0188819981009729F02A813B81261726
:10067000370788F48B016F5F7F4F0E9485100097CA
:1006800061F0998388831B830A832C813D81232B0E
:1006900011F4FC01108281E001C080E0DF91CF9174
:1006A0001F910F910895FC01808191810C94ED0FB1
:1006B0000C94ED0FCF93DF93EC0188819981009723
:1006C00011F00E94ED0F198218821D821C821B827C
:1006D0001A82DF91CF910895EF92FF920F931F93AB
:1006E000CF93DF93EC017B018A01BA01B5DF811161
:1006F00003C0CE01DFDF07C01D830C83B7018881F3
:1007000099810E947F11CE01DF91CF911F910F91AE
:10071000FF90EF900895FB01DC0111961C921E9250
:1007200013961C921E92129715961C921E92149765
:100730008617970741F0608171816115710519F085
:1007400044815581C9CF0895EF92FF920F931F9373
:10075000CF93DF93EC01198218821B821A821D82CB
:100760001C8261157105F9F08B01CB010E941D0DF2
:100770007C01BC01CE0170DF811108C0CE01DF9188
:10078000CF911F910F91FF90EF9094CFFD82EC825B
:10079000B80188819981DF91CF911F910F91FF90CE
:1007A000EF900C94160DDF91CF911F910F91FF9058
:1007B000EF9008951F920F920FB60F9211240BB66F
:1007C0000F922F933F934F935F936F937F938F93EA
:1007D0009F93AF93BF93EF93FF9381E692E042DE46
:1007E000FF91EF91BF91AF919F918F917F916F9109
:1007F0005F914F913F912F910F900BBE0F900FBEC5
:100800000F901F9018951F920F920FB60F92112400
:100810000BB60F922F933F934F935F936F937F93FA
:100820008F939F93AF93BF93EF93FF9381E692E0F3
:10083000ADDDFF91EF91BF91AF919F918F917F912E
:100840006F915F914F913F912F910F900BBE0F9041
:100850000FBE0F901F9018951F920F920FB60F9218
:1008600011240BB60F922F933F934F935F936F9387
:100870007F938F939F93AF93BF93EF93FF938EEFED
:1008800092E0F0DDFF91EF91BF91AF919F918F9139
:100890007F916F915F914F913F912F910F900BBE80
:1008A0000F900FBE0F901F9018951F920F920FB6CA
:1008B0000F9211240BB60F922F933F934F935F9398
:1008C0006F937F938F939F93AF93BF93EF93FF9318
:1008D0008EEF92E05BDDFF91EF91BF91AF919F9121
:1008E0008F917F916F915F914F913F912F910F90D9
:1008F0000BBE0F900FBE0F901F901895089590E0BB
:10090000FC013197E231F10508F04EC08827EC5721
:10091000FF4F8F4F0C944A0F809180008F7703C058
:10092000809180008F7D8093800008958091800069
:10093000877FF9CF84B58F7702C084B58F7D84BD62
:1009400008958091B0008F7703C08091B0008F7DB3
:100950008093B0000895809190008F7707C08091B8
:1009600090008F7D03C080919000877F80939000DE
:1009700008958091A0008F7707C08091A0008F7D9F
:1009800003C08091A000877F8093A000089580918C
:1009900020018F7707C0809120018F7D03C0809157
:1009A0002001877F809320010895AF92BF92CF925C
:1009B000DF92EF92FF920F931F93CF93DF937C010F
:1009C0006B018901DB0114968D919C911597892B00
:1009D000E9F0AD90BC90FA0160817181C5010E947F
:1009E0008611009721F0EC01CA19DB0902C0CFEF94
:1009F000DFEFD8016D917C91C5010E9486110097AF
:100A000029F08C010A191B09D7FF05C069EC72E0B7
:100A1000C7019ADE4AC017FDF9CF21960C171D07B2
:100A200028F49C2F8D2FE801092F182FD70111963C
:100A30001C921E9213961C921E92129715961C924F
:100A40001E92149740E050E06EE272E0C70144DE6F
:100A5000F60184819581C817D90738F58017910769
:100A600008F48C01D601ED91FC911197E00FF11F74
:100A7000B08010826D917C916C0F7D1F61157105A6
:100A800059F0FB0101900020E9F73197AF01461BB7
:100A9000570BC70121DE02C0C7010CDEF6018081C1
:100AA0009181FC01E00FF11FB082C701DF91CF916E
:100AB0001F910F91FF90EF90DF90CF90BF90AF907C
:100AC0000895009761F0FC0101900020E9F731974B
:100AD000AF01481B590BBC018EEF92E02CCC80E09B
:100AE00090E008958F929F92AF92BF920F931F93C1
:100AF000CF93DF93CDB7DEB7A1970FB6F894DEBFE3
:100B00000FBECDBF19A2423008F44AE08E010F5D3E
:100B10001F4F842E912CA12CB12CA50194010E9471
:100B2000800EE62FB901CA0101501109EA3014F410
:100B3000E05D01C0E95CD801EC93232B242B252B2D
:100B400061F7C801BEDFA1960FB6F894DEBF0FBEF5
:100B5000CDBFDF91CF911F910F91BF90AF909F902C
:100B60008F900895E091FE02F091FF020190F081D4
:100B7000E02D682F8EEF92E01994FC01A089B189D5
:100B800082E08C93A485B5851C92A685B78580E10B
:100B90008C93108EA489B58986E08C93A289B38941
:100BA0008C9180618C93A289B3898C9188608C939D
:100BB000A289B3898C9180688C930288F389E02D97
:100BC00080818F7D808308951F93CF93DF93282F9B
:100BD00030E0F901ED57FD4F8491F901E35CFD4FE1
:100BE000D491F901E950FE4FC491CC23C1F0162FE6
:100BF000811185DEEC2FF0E0EE0FFF1FED53FE4F6D
:100C0000A591B4918FB7F894111105C09C91ED2F67
:100C1000E095E92302C0EC91ED2BEC938FBFDF91BF
:100C2000CF911F910895DF92EF92FF920F931F9340
:100C3000CF93DF93C7E0D0E0E12C01E010E060E06B
:100C400080919F03C1DF8FE99FE00197F1F700C01A
:100C500000002091A00330E0F901ED57FD4F849191
:100C6000F901E35CFD4FD490F901E950FE4FF49097
:100C7000FF2069F0811143DEEF2DF0E0EE0FFF1F42
:100C8000E352FE4FA591B491EC91ED21B1F461E0F6
:100C900080919F0399DF8FE99FE00197F1F700C0F2
:100CA0000000219708F0CBCF8E2DDF91CF911F91BF
:100CB0000F91FF90EF90DF900895C8010C2E01C0B6
:100CC000880F0A94EAF7E82AE2CFCF93DF9390E007
:100CD000FC01E35CFD4F2491FC01E950FE4F84913F
:100CE000882361F190E0880F991FFC01E755FE4FC2
:100CF000C591D491FC01ED53FE4FA591B4916111C2
:100D000009C09FB7F8948881209582238883EC914D
:100D10002E230BC0623061F49FB7F8943881822F84
:100D2000809583238883EC912E2B2C939FBF06C044
:100D30008FB7F894E8812E2B28838FBFDF91CF9156
:100D400008953FB7F8948091A7039091A803A091CC
:100D5000A903B091AA0326B5A89B05C02F3F19F09F
:100D60000196A11DB11D3FBFBA2FA92F982F88272B
:100D7000820F911DA11DB11DBC01CD0142E0660F86
:100D8000771F881F991F4A95D1F708952FB7F894B8
:100D90006091A3037091A4038091A5039091A60391
:100DA0002FBF08950F931F93F1DF60936902709333
:100DB0006A0280936B0290936C02E0916102F09161
:100DC00062020284F385E02D81E692E0199597FF97
:100DD0001EC0DCDF0091690210916A0220916B0253
:100DE00030916C02DC01CB01801B910BA20BB30B89
:100DF00000916502109166022091670230916802AD
:100E000080179107A207B307C0F28FEF9FEF1F91E2
:100E10000F9108951F920F920FB60F9211242F93E6
:100E20003F938F939F93AF93BF938091A303909130
:100E3000A403A091A503B091A6033091A20323E0DF
:100E4000230F2D3720F40196A11DB11D05C026E802
:100E5000230F0296A11DB11D2093A2038093A3032B
:100E60009093A403A093A503B093A6038091A70336
:100E70009091A803A091A903B091AA030196A11D86
:100E8000B11D8093A7039093A803A093A903B093E7
:100E9000AA03BF91AF919F918F913F912F910F9096
:100EA0000FBE0F901F901895CF93DF93CDB7DEB78D
:100EB000A4970FB6F894DEBF0FBECDBF789484B56B
:100EC000826084BD84B5816084BD85B5826085BD46
:100ED00085B5816085BD80916E00816080936E00D4
:100EE00010928100809181008260809381008091C6
:100EF0008100816080938100809180008160809377
:100F000080008091B10084608093B1008091B00036
:100F100081608093B0008091910082608093910005
:100F20008091910081608093910080919000816018
:100F3000809390008091A10082608093A1008091B5
:100F4000A10081608093A1008091A00081608093C6
:100F5000A000809121018260809321018091210174
:100F60008160809321018091200181608093200124
:100F700080917A00846080937A0080917A00826008
:100F800080937A0080917A00816080937A008091CA
:100F90007A00806880937A001092C1008EEF92E010
:100FA000ECDD4AE0842E912CA12CB12C809202031E
:100FB00090920303A0920403B092050381E692E0AD
:100FC000DCDD8092650290926602A0926702B09288
:100FD000680261E086E079DE60E086E0F5DDB1DEA2
:100FE0002B013C0154EF852E99249394A12CB12C14
:100FF000A8DEDC01CB0184199509A609B709883E52
:101000009340A105B10558F021E0821A9108A1088A
:10101000B10888EE480E83E0581E611C711C8114D3
:101020009104A104B10421F724E6822E912CA12C75
:10103000B12C37E8232E32E0332E81E692E0F4D94A
:10104000892B09F4E1C118A21F8E1AA219A21CA2B1
:101050001BA240E050E06EE272E0CE014F963CDB16
:10106000A1DE97FD1AC089831A820BA11CA10F5F14
:101070001F4FB801CE014F96EFDA882389F32F8DE9
:1010800038A18BA19CA1BE016F5F7F4F820F931F80
:101090000E947F111CA30BA3E3CF67EA71E0CE018E
:1010A0000D9652DB65EA71E0CE0107964DDBBE017D
:1010B000615E7F4FCE0101962EDB9E01235F3F4F85
:1010C000AE01495F5F4FBE016F5F7F4FCE01499612
:1010D0006CDCCE010196E7DACE010796E4DACE01A8
:1010E0000D96E1DA6BE971E0CE0101962DDBBE01D0
:1010F0006F5F7F4FCE0149967DDA182FCE010196A2
:10110000D2DA112391F169E971E0CE010D961CDB71
:1011100067E971E0CE01079617DBBE01615E7F4F84
:10112000CE010196F8DA9E01235F3F4FAE01495F81
:101130005F4FBE016F5F7F4FCE01439636DCCE011D
:1011400043964DDA7093430260934202CE01439678
:10115000AADACE010196A7DACE010796A4DACE016B
:101160000D96A1DAF1E0F0933E026DE871E0CE0158
:101170000196EADABE016F5F7F4FCE0149963ADAF7
:10118000182FCE0101968FDA112391F16BE871E0EF
:10119000CE010D96D9DA69E871E0CE010796D4DA6E
:1011A000BE01615E7F4FCE010196B5DA9E01235FDD
:1011B0003F4FAE01495F5F4FBE016F5F7F4FCE0172
:1011C0004396F3DBCE0143960ADA709340026093B4
:1011D0003F02CE01439667DACE01019664DACE0172
:1011E000079661DACE010D965EDA21E02093410286
:1011F00066E771E0CE010196A7DABE016F5F7F4F0F
:10120000CE014996F7D9182FCE0101964CDA112359
:1012100079F164E771E0CE010D9696DA62E771E04C
:10122000CE01079691DABE01615E7F4FCE01019635
:1012300072DA9E01235F3F4FAE01495F5F4FBE01EF
:101240006F5F7F4FCE014396B0DBCE014396C7D987
:101250007093040260930302CE01439624DACE0118
:10126000019621DACE0107961EDACE010D961BDA21
:101270006DE571E0CE01019667DABE016F5F7F4FC9
:10128000CE014996B7D9182FCE0101960CDA112359
:1012900079F16BE571E0CE010D9656DA69E571E002
:1012A000CE01079651DABE01615E7F4FCE010196F5
:1012B00032DA9E01235F3F4FAE01495F5F4FBE01AF
:1012C0006F5F7F4FCE01439670DBCE01439687D987
:1012D0007093020260930102CE014396E4D9CE01DD
:1012E0000196E1D9CE010796DED9CE010D96DBD964
:1012F0006EE471E0CE01019627DABE016F5F7F4F89
:10130000CE01499677D9182FCE010196CCD9112359
:1013100079F16CE471E0CE010D9616DA6AE471E0C1
:10132000CE01079611DABE01615E7F4FCE010196B4
:10133000F2D99E01235F3F4FAE01495F5F4FBE016F
:101340006F5F7F4FCE01439630DBCE01439647D986
:101350007093060260930502CE014396A4D9CE0194
:101360000196A1D9CE0107969ED9CE010D969BD9A3
:1013700061E471E0CE010196E7D9BE016F5F7F4F56
:10138000CE01499637D9182FCE0101968CD9112359
:1013900079F01092400210923F0210924302109294
:1013A000420281E080933E0280934102109200024B
:1013B00067E371E0CE010196C7D9BE016F5F7F4F31
:1013C000CE01499617D9182FCE0101966CD9112359
:1013D00019F091E0909300026CE271E0CE01019669
:1013E000B3D9BE016F5F7F4FCE01499603D9182F45
:1013F000CE01019658D9111110920002CE014996E2
:1014000052D9CE014F964FD980914102882381F065
:10141000A0913F02B09140022FEF30E043D5A501EB
:10142000940142D43093600220935F0210924102F3
:1014300080913E028823F9F0409005025090060208
:10144000612C712CA0914202B091430222273327D4
:10145000A90124193509460957094CD4A50194015D
:1014600023D4420E531E641E751E50929C0340925C
:101470009B0310923E0200915F021091600261E0B6
:1014800084E023DC0115110511F460E004C00F3F76
:10149000110521F461E084E097DBAAC0F101849199
:1014A00090E0FC013197E231F10508F09CC08827FB
:1014B000EE58FF4F8F4FEEC484B5806884BD07BDE2
:1014C00097C084B5806284BD08BD92C080918000C1
:1014D000806880938000109389000093880088C002
:1014E0008091800080628093800010938B00009335
:1014F0008A007EC080918000886080938000109375
:101500008D0000938C0074C08091B000806880933F
:10151000B0000093B3006CC08091B00080628093F3
:10152000B0000093B40064C0809190008068809304
:10153000900010939900009398005AC080919000F9
:1015400080628093900010939B0000939A0050C09B
:101550008091900088608093900010939D0000938C
:101560009C0046C08091A00080688093A00080917C
:10157000A0008F7B8093A0001093A9000093A80087
:1015800037C08091A00080628093A0001093AB00D0
:101590000093AA002DC08091A00088608093A000D5
:1015A0001093AD000093AC0023C0809120018068AF
:1015B00080932001109329010093280119C0809184
:1015C000200180628093200110932B0100932A0157
:1015D0000FC08091200188608093200110932D011D
:1015E00000932C0105C0003811050CF053CF4DCFEE
:1015F0000091030210910402C9DB40905A025090FE
:101600005B0260905C0270905D02AB01BC0144190A
:10161000550966097709C801A0E0B0E048175907E5
:101620006A077B0708F4B9C080910002882309F497
:10163000ABC04090420250904302052C000C66085B
:10164000770877FE0BC08DE28DDA66277727CB010E
:1016500064197509860997094AE003C04AE0C30185
:10166000B20140DA8DE292E02CDA409044025090D0
:1016700045026090460270904702A3019201C301A7
:10168000B20104D4882319F08FE292E018C07301EC
:101690006201E894F7F82FEF3FEF4FE75FE7C701EC
:1016A000B601F4D381110DC02FEF3FEF4FE75FE795
:1016B000C701B601E0D1181624F483E392E001DA01
:1016C00060C02FEF3FEF4FE75FE4C301B201DAD311
:1016D00018161CF487E392E0F2CF2FEF3FEF4FE7AD
:1016E0005FECC301B201C7D187FDF4CF20E030E049
:1016F000A901C301B201BFD187FF06C08DE232DA72
:1017000077FA709477F870942AE037ED43EA5BE358
:10171000C301B20127D36B017C0188D32B013C01AB
:10172000AED19B01AC01C701B6011BD36B017C019B
:101730004AE0C301B201D6D98EE214DA20E030E0EB
:1017400040E251E4C701B601FBD16B017C016ED3CD
:101750002B01612C712C4AE0C301B201C3D9C30132
:10176000B2018DD19B01AC01C701B601FAD220E0D4
:1017700030E040E251E4E4D159D380E090E04AE027
:10178000B1D98BE392E09DD901DB60935A0270934B
:101790005B0280935C0290935D02009101021091C4
:1017A0000202F4DA409050025090510260905202CE
:1017B00070905302AB01BC014419550966097709C1
:1017C000C801A0E0B0E0481759076A077B0708F492
:1017D0003BC060E08091A103F7D98FE99FE00197BA
:1017E000F1F700C000001FDA082F10E0102F0027CB
:1017F0001ADA082B61E08091A103E6D902FD0FC03F
:10180000B80183E0769567958A95E1F780E090E0EE
:1018100036D120E030E040E85EE392D104C060E0E1
:1018200070E080EC9FE760934402709345028093E0
:10183000460290934702AADA6093500270935102D5
:101840008093520290935302A1DA40904802509044
:10185000490260904A0270904B02409105025091FB
:1018600006026A01E12CF12C8B019C010419150977
:1018700026093709C016D106E206F30670F4D7012F
:10188000C601840D951DA61DB71D80934802909337
:101890004902A0934A02B0934B0240909B035090A0
:1018A0009C03612C712C72DA00914802109149025C
:1018B00020914A0230914B02DC01CB01801B910B3D
:1018C000A20BB30B481659066A067B0638F461E092
:1018D00086E07AD991E09093550205C060E086E0F9
:1018E00073D9109255020E94BA02A7CB0895CF93E4
:1018F000DF93E1E6F2E01382128248EE53E060E00B
:1019000070E0448355836683778381E192E091831D
:1019100080832DEC30E0358724872CEC30E037874E
:10192000268728EC30E0318B208B29EC30E0338B9C
:10193000228B2AEC30E0358B248B2EEC30E0378B79
:10194000268B118E128E138E148EEEEFF2E0138220
:10195000128244835583668377839183808385ECE9
:1019600090E09587848784EC90E09787868780EC69
:1019700090E0918B808B81EC90E0938B828B82EC5A
:1019800090E0958B848B86EC90E0978B868B118E04
:10199000128E138E148ECFE9D3E08DE088838AE017
:1019A0008A838CE0898361E08AE08FD961E0888155
:1019B0008CD960E0898189D961E08A8105D983E287
:1019C00092E090939E0380939D03809105029091F5
:1019D000060290939C0380939B03DF91CF9108951F
:1019E0001F93FC0199278827BC01E89411911032BC
:1019F000E9F3193010F01E30C8F31B3249F01D32E4
:101A000041F4689405C022D0610F711D811D911DA4
:101A1000119110531A30B8F33EF49095809570955B
:101A200061957F4F8F4F9F4F1F910895FB01DC0100
:101A300005900D920020E1F70895FC01059000202B
:101A4000E9F7809590958E0F9F1F0895592F482F85
:101A5000372F262F660F771F881F991F660F771F56
:101A6000881F991F620F731F841F951F660F771FB2
:101A7000881F991F089540D008F481E00895E894E4
:101A800009C097FB3EF490958095709561957F4FC6
:101A90008F4F9F4F9923A9F0F92F96E9BB27939574
:101AA000F695879577956795B795F111F8CFFAF484
:101AB000BB0F11F460FF1BC06F5F7F4F8F4F9F4FB5
:101AC00016C0882311F096E911C0772321F09EE813
:101AD000872F762F05C0662371F096E8862F70E079
:101AE00060E02AF09A95660F771F881FDAF7880F53
:101AF0009695879597F90895990F0008550FAA0BA9
:101B0000E0E8FEEF16161706E807F907C0F0121610
:101B10001306E407F50798F0621B730B840B950B13
:101B200039F40A2661F0232B242B252B21F4089568
:101B30000A2609F4A140A6958FEF811D811D089505
:101B40000BD078C069D028F06ED018F0952309F03A
:101B50005AC05FC01124A2C07ED0A0F3959FD1F3DC
:101B6000950F50E0551F629FF001729FBB27F00D4B
:101B7000B11D639FAA27F00DB11DAA1F649F6627A0
:101B8000B00DA11D661F829F2227B00DA11D621FEF
:101B9000739FB00DA11D621F839FA00D611D221FA9
:101BA000749F3327A00D611D231F849F600D211D8D
:101BB000822F762F6A2F11249F5750408AF0E1F030
:101BC00088234AF0EE0FFF1FBB1F661F771F881F79
:101BD00091505040A9F79E3F510570F014C05EC06F
:101BE0005F3FECF3983EDCF3869577956795B79564
:101BF000F795E7959F5FC1F7FE2B880F911D96958E
:101C0000879597F9089597F99F6780E870E060E0FD
:101C100008959FEF80EC089500240A941616170685
:101C200018060906089500240A94121613061406CD
:101C300005060895092E0394000C11F4882352F030
:101C4000BB0F40F4BF2B11F460FF04C06F5F7F4FE8
:101C50008F4F9F4F089557FD9058440F551F59F0CF
:101C60005F3F71F04795880F97FB991F61F09F3F89
:101C700079F087950895121613061406551FF2CFB2
:101C80004695F1DF08C0161617061806991FF1CF02
:101C900086957105610508940895E894BB27662729
:101CA0007727CB0197F90895052E97FB16F400943A
:101CB0000FD057FD05D024D007FC02D046F408C051
:101CC00050954095309521953F4F4F4F5F4F089568
:101CD00090958095709561957F4F8F4F9F4F089598
:101CE00031D0A59F900DB49F900DA49F800D911DA4
:101CF00011240895B7FFF4CFF3DF821B930B0895EF
:101D0000A1E21A2EAA1BBB1BFD010DC0AA1FBB1FFF
:101D1000EE1FFF1FA217B307E407F50720F0A21B71
:101D2000B30BE40BF50B661F771F881F991F1A94DE
:101D300069F760957095809590959B01AC01BD0108
:101D4000CF010895A29FB001B39FC001A39F700D62
:101D5000811D1124911DB29F700D811D1124911DB3
:101D600008955058BB27AA270ED064CF55DF30F016
:101D70005ADF20F031F49F3F11F41EF44ACF0EF4E5
:101D8000E095E7FB40CFE92F66DF80F3BA176207E3
:101D900073078407950718F071F49EF57ECF0EF453
:101DA000E0950B2EBA2FA02D0B01B90190010C016B
:101DB000CA01A0011124FF27591B99F0593F50F483
:101DC000503E68F11A16F040A22F232F342F4427DB
:101DD000585FF3CF469537952795A795F0405395D3
:101DE000C9F77EF41F16BA0B620B730B840BBAF0A3
:101DF0009150A1F0FF0FBB1F661F771F881FC2F70E
:101E00000EC0BA0F621F731F841F48F48795779521
:101E10006795B795F7959E3F08F0B3CF9395880FD8
:101E200008F09927EE0F9795879508951CDF88F0A5
:101E30009F5790F0B92F9927B751A0F0D1F0660FB6
:101E4000771F881F991F1AF0BA95C9F712C0B130D1
:101E500081F023DFB1E0089520CF672F782F882706
:101E6000B85F39F0B93FCCF3869577956795B39510
:101E7000D9F73EF490958095709561957F4F8F4F7F
:101E80009F4F089539DE08F48FEF089535DE880BF3
:101E9000990B0895EE0FFF1F881F8BBF0790F691D7
:101EA000E02D19944FDFB7FF0895821B930B08951F
:101EB000CF93DF938230910510F482E090E0E091BF
:101EC000AD03F091AE0320E030E0C0E0D0E0309709
:101ED00011F14081518148175907C0F0481759073F
:101EE00061F482819381209719F09B838A832BC0B0
:101EF0009093AE038093AD0326C02115310519F0F0
:101F00004217530718F49A01BE01DF01EF01028066
:101F1000F381E02DDCCF2115310509F1281B390BA8
:101F20002430310590F412968D919C911397611590
:101F3000710521F0FB019383828304C09093AE036B
:101F40008093AD03FD01329644C0FD01E20FF31F03
:101F500081939193225031092D933C933AC0209163
:101F6000AB033091AC03232B41F420910902309153
:101F70000A023093AC032093AB0320910702309107
:101F800008022115310541F42DB73EB740910B02EF
:101F900050910C02241B350BE091AB03F091AC0384
:101FA000E217F307A0F42E1B3F0B2817390778F030
:101FB000AC014E5F5F4F2417350748F04E0F5F1F8F
:101FC0005093AC034093AB038193919302C0E0E044
:101FD000F0E0CF01DF91CF9108950F931F93CF933E
:101FE000DF93009709F48CC0FC01329713821282B0
:101FF0000091AD031091AE030115110581F420810C
:102000003181820F931F2091AB033091AC032817CD
:10201000390779F5F093AC03E093AB0371C0D801B5
:1020200040E050E0AE17BF0750F412962D913C915E
:102030001397AD012115310509F1D901F3CF9D01A8
:10204000DA013383228360817181860F971F8217A3
:10205000930769F4EC0128813981260F371F2E5F21
:102060003F4F318320838A819B8193838283452BD9
:1020700029F4F093AE03E093AD0342C01396FC93B2
:10208000EE931297ED01499159919E01240F351F4E
:10209000E217F30771F480819181840F951F0296F6
:1020A00011969C938E938281938113969C938E9329
:1020B0001297E0E0F0E0D80112968D919C91139771
:1020C000009719F0F8018C01F6CF8D919C91980141
:1020D0002E5F3F4F820F931F2091AB033091AC03D3
:1020E0002817390769F4309729F41092AE0310923B
:1020F000AD0302C0138212821093AC030093AB03B2
:10210000DF91CF911F910F9108956F927F928F92DF
:102110009F92AF92BF92CF92DF92EF92FF920F9376
:102120001F93CF93DF93EC01009781F4CB01DF91F4
:10213000CF911F910F91FF90EF90DF90CF90BF90C4
:10214000AF909F908F907F906F90B2CEFC01E60F82
:10215000F71F9C0122503109E217F30708F4A8C0C9
:10216000D9010D911C91119706171707A8F005309A
:10217000110508F49BC0C80104978617970708F457
:1021800095C002501109061B170B019311936D9313
:102190007C93CF0122DF8AC05B01A01AB10A4C01F7
:1021A000800E911EA091AD03B091AE0340E050E0CF
:1021B000E12CF12C109709F44AC0A815B905D1F506
:1021C0006D907C901197630182E0C80ED11CCA14F7
:1021D000DB0480F1A3014A195B096A0182E0C80EA1
:1021E000D11C1296BC9012971396AC91B5E0CB1609
:1021F000D10440F0B282A38351834083D9016D930F
:102200007C930AC00E5F1F4FC301800F911FF9011D
:1022100091838083EB2DFA2FE114F10431F0D70183
:102220001396FC93EE93129741C0F093AE03E093A4
:10223000AD033CC08D919C9111974817590708F444
:10224000AC017D0112960D90BC91A02DB3CF809171
:10225000AB039091AC0388159905E1F44617570735
:10226000C8F48091070290910802009741F48DB75D
:102270009EB740910B0250910C02841B950BE817FE
:10228000F907B0F4F093AC03E093AB03F901718369
:1022900060830CC0CB010CDE7C01009749F0A801E3
:1022A000BE011BD0CE0199DEC70104C0CE0102C021
:1022B00080E090E0DF91CF911F910F91FF90EF9020
:1022C000DF90CF90BF90AF909F908F907F906F9056
:1022D000089581E090E0F89433C0FB01DC0102C076
:1022E00001900D9241505040D8F70895FB01DC0158
:1022F0008D91019080190110D9F3990B0895FB017C
:10230000DC0101900D920020E1F70895FB0151914D
:102310005523A9F0BF01DC014D9145174111E1F7AB
:1023200059F4CD010190002049F04D914015411123
:10233000C9F3FB014111EFCF81E090E001970895CF
:1023400011E0C9E6D1E000E005C0802FFE01A2DD6A
:102350002196011DCA36D10780E00807B1F7F8942D
:02236000FFCFAD
:1023620001FA00E803D0070000AF0380000000007C
:102372000053029B01E30199021402F201060200DA
:102382000000007E0458030D000A000C0009006ED4
:0E239200616E00696E66006F7666000D0A00CF
:00000001FF
