:1000000014C1000042C1000040C100003EC1000018
:100010003CC100003AC1000038C1000036C10000F8
:1000200034C1000032C1000030C100002EC1000008
:100030002CC100002AC1000028C1000026C1000018
:1000400024C1000022C1000020C100001EC1000028
:100050001CC100001AC1000018C1000047C6000002
:1000600014C10000B7C200008CC200000EC1000025
:100070000CC100000AC1000008C1000006C1000058
:1000800004C1000002C1000000C10000FEC0000069
:10009000FCC00000FAC00000F8C00000F6C000007C
:1000A000F4C00000F2C00000F0C00000EEC000008C
:1000B000ECC00000EAC00000E8C00000E6C000009C
:1000C000E4C00000E2C00000E0C00000DEC00000AC
:1000D000DCC00000DAC00000D8C00000D6C00000BC
:1000E000D4C000003B033E032D03310337037503E7
:1000F000420346034C03500354035A035E03620356
:10010000750368036C0370030000210024002700BE
:100110002A002D0030003300010100000401070116
:100120000A0100002200250028002B002E003100CB
:10013000340002010000050108010B01000020004D
:100140002300260029002C002F00320000010000AF
:10015000030106010901050505050705080808084A
:10016000020202020A0A080804040404010101014F
:10017000010101010303030303030303040707074A
:100180000C0C0C0C0C0C0C0C0202020206060606EF
:10019000060606060B0B0B0B0B0B0B0B01021020BC
:1001A00020080810204010204080020102010804AD
:1001B0000201010204081020408080402010080441
:1001C000020180040201804020100804020108049A
:1001D00002010102040810204080010204081020DE
:1001E000408000000A0B02090C0D0E0807030401F1
:1001F00000000000000000000000000000000000FF
:1002000000000000000000000000000000001211CB
:1002100010000000000000000000000000000000CE
:100220000000000000000000990E11241FBECFEF57
:10023000D1E2DEBFCDBF00E00CBF12E0A0E0B2E033
:10024000ECEEF5E200E00BBF02C007900D92A8377C
:10025000B107D9F726E0A8E7B2E001C01D92AB32A2
:10026000B207E1F711E0C5E1D1E000E006C0219757
:100270000109802FFE010E94E812C431D10780E0FD
:100280000807A9F77DD50C94F412BACECF92DF926D
:10029000EF92FF920F931F93CF93DF936C017A013C
:1002A0008B01C0E0D0E0CE15DF0589F0D8016D915B
:1002B0008D01D601ED91FC910190F081E02DC601F8
:1002C0001995892B11F47E0102C02196ECCFC7014C
:1002D000DF91CF911F910F91FF90EF90DF90CF9022
:1002E0000895089580E090E00895FC01538D448DB9
:1002F000252F30E0842F90E0821B930B541710F0D1
:10030000CF96089501970895FC01918D828D9817DD
:1003100061F0828DDF01A80FB11D5D968C91928DE9
:100320009F5F9F73928F90E008958FEF9FEF0895E6
:10033000FC01918D828D981731F0828DE80FF11DAF
:10034000858D90E008958FEF9FEF0895FC01918DCA
:10035000228D892F90E0805C9F4F821B91098F73C3
:100360009927089589E493E0F1DF21E0892B09F4CE
:1003700020E0822F0895FC01848DDF01A80FB11DBC
:10038000A35ABF4F2C91848D90E001968F739927CB
:10039000848FA689B7892C93A089B1898C918064B8
:1003A0008C93938D848D981306C00288F389E02D79
:1003B00080818F7D80830895EF92FF920F931F932A
:1003C000CF93DF93EC0181E0888F9B8D8C8D981308
:1003D00005C0E889F989808185FD23C0F62E0B8D43
:1003E00010E00F5F1F4F0F731127E02E8C8DE81266
:1003F0000BC00FB607FCFACFE889F989808185FF29
:10040000F5CFCE01B8DFF2CF8B8DFE01E80FF11DE5
:10041000E35AFF4FF0820B8FEA89FB89808180626B
:1004200007C0EE89FF896083E889F989808180644B
:10043000808381E090E0DF91CF911F910F91FF9039
:10044000EF900895CF93DF93EC01888D8823C1F05E
:10045000EA89FB89808185FD05C0A889B9898C91CD
:1004600086FD0EC00FB607FCF5CF808185FFF2CF69
:10047000A889B9898C9185FFEDCFCE017CDFE8CFCB
:10048000DF91CF91089580E090E0892B19F06ADF29
:10049000811125C080E090E0892B41F080E090E060
:1004A000892B21F00E94000081111CC080E090E0A7
:1004B000892B41F080E090E0892B21F00E94000020
:1004C000811113C080E090E0892BA1F080E090E0E2
:1004D000892B81F00E94000081110AC008950E94BA
:1004E0000000D8CF0E940000E1CF0E940000EACFB8
:1004F0000C94000008950E94F01280914403811131
:1005000038C080E090E0A8ECB2E4809305029093BC
:100510000602A0930702B093080280E090E0A0E8F2
:10052000BFE38093F0039093F103A093F203B093A1
:10053000F30380E090E0A8E4B2E48093D1059093C7
:10054000D205A093D305B093D40580E590E09093B5
:100550000604809305048AEF90E09093040480934E
:10056000030480911B068093000281E08093440382
:1005700008951092F603109244038091000290E0D7
:10058000B5C01F920F920FB60F9211240BB60F92A7
:100590002F933F934F935F936F937F938F939F938B
:1005A000AF93BF93EF93FF9389E493E0E4DEFF9171
:1005B000EF91BF91AF919F918F917F916F915F91DB
:1005C0004F913F912F910F900BBE0F900FBE0F9048
:1005D0001F9018951F920F920FB60F9211240BB611
:1005E0000F922F938F939F93EF93FF93E091590373
:1005F000F0915A038081E0915F03F091600382FDE6
:1006000012C09081809162038F5F8F73209163038A
:10061000821751F0E0916203F0E0E75BFC4F958FA9
:100620008093620301C08081FF91EF919F918F9130
:100630002F910F900BBE0F900FBE0F901F9018952B
:1006400090E0FC013197E231F10508F04EC08827B7
:10065000EE58FF4F8F4F0C94E812809180008F77F7
:1006600003C0809180008F7D8093800008958091E9
:100670008000877FF9CF84B58F7702C084B58F7DE6
:1006800084BD08958091B0008F7703C08091B00041
:100690008F7D8093B0000895809190008F7707C080
:1006A000809190008F7D03C080919000877F809320
:1006B000900008958091A0008F7707C08091A000DE
:1006C0008F7D03C08091A000877F8093A000089554
:1006D000809120018F7707C0809120018F7D03C01A
:1006E00080912001877F8093200108958F929F92AF
:1006F000AF92BF92CF92DF92EF92FF92CF93C1E081
:10070000019711F0C0E04CC080911B06811148C0D8
:10071000E091FF05F0910006C080D180E280F38077
:10072000C0920706D0920806E0920906F0920A06E7
:10073000E091FD05F091FE0580819181A281B38158
:1007400080930B0690930C06A0930D06B0930E06B3
:100750008090170690901806A0901906B0901A067F
:10076000A5019401C701B6010E947D12181684F0FC
:100770008090130690901406A0901506B09016066F
:10078000A5019401C701B6010E94331187FF08C07B
:100790008092070690920806A0920906B0920A0677
:1007A000C0931B06CF91FF90EF90DF90CF90BF904A
:1007B000AF909F908F900895009761F0FC01019099
:1007C0000020E9F73197AF01481B590BBC0189E4C0
:1007D00093E05CCD80E090E008958F929F92AF927D
:1007E000BF920F931F93CF93DF93CDB7DEB7A1973F
:1007F0000FB6F894DEBF0FBECDBF19A2423008F489
:100800004AE08E010F5D1F4F842E912CA12CB12C3C
:10081000A50194010E949D10E62FB901CA01015063
:100820001109EA3014F4E05D01C0E95CD801EC93F1
:10083000232B242B252B61F7C801BEDFA1960FB611
:10084000F894DEBF0FBECDBFDF91CF911F910F9106
:10085000BF90AF909F908F9008954F925F926F924C
:100860007F928F929F92AF92BF92CF92DF92EF9240
:10087000FF926B017C01B42E9B01AC010E94E4123B
:10088000882319F08BE692E027C026013701E8940F
:1008900077F82FEF3FEF4FE75FE7C301B2010E9408
:1008A000E41281110DC02FEF3FEF4FE75FE7C30167
:1008B000B2010E94331118161CF48FE692E00CC0AE
:1008C0002FEF3FEF4FE75FE4C701B6010E947D12B3
:1008D00018167CF483E792E0FF90EF90DF90CF90C2
:1008E000BF90AF909F908F907F906F905F904F9050
:1008F00063CF2FEF3FEF4FE75FECC701B6010E94D8
:10090000331187FDE7CF20E030E0A901C701B60130
:100910000E94331187FF11C0E0914903F0914A030F
:100920000190F081E02D6DE289E493E019954C018E
:10093000F7FAF094F7F8F09402C0812C912CA12CD6
:1009400060E070E080E09FE3AB1441F020E030E035
:1009500040E251E40E943711A394F6CF9B01AC0111
:10096000C701B6010E94CF102B013C010E949F11CC
:100970006B017C010E94CB119B01AC01C301B20150
:100980000E94CE102B013C014AE0C701B60125DFD1
:100990007C01E80CF91CBB2069F0E0914903F0915F
:1009A0004A030190F081E02D6EE289E493E019950D
:1009B000E80EF91EDB2CDD2019F120E030E040E2EA
:1009C00051E4C301B2010E9481122B013C010E943B
:1009D0009F114B01A12CB12C4AE0C501B401FDDEF1
:1009E000E80EF91EC501B4010E94CB119B01AC01B8
:1009F000C301B2010E94CE102B013C01DA94DBCF7F
:100A0000C701FF90EF90DF90CF90BF90AF909F9085
:100A10008F907F906F905F904F900895CDCECF9242
:100A2000DF92EF92FF920F931F93CF93DF93C6EE67
:100A3000D3E08091D5059091D605A091D705B091CE
:100A4000D805EC81FD8180839183A283B38360917B
:100A5000D1057091D2058091D3059091D4059B0169
:100A6000AC010E94CF1020E030E040E850E40E944A
:100A700081126B017C012091CD053091CE05409112
:100A8000CF055091D0056091C9057091CA0580913C
:100A9000CB059091CC050E94CE1020ED3FE049E4BB
:100AA00050E40E9481129B01AC01C701B6010E9473
:100AB00037116093D9057093DA058093DB05909325
:100AC000DC0589899A89AB89BC890D891E892F89A2
:100AD000388DBC01CD01601B710B820B930B0E9402
:100AE000CB1120E030E04AE754E40E9437116093D4
:100AF000DD057093DE058093DF059093E005DF91BF
:100B0000CF911F910F91FF90EF90DF90CF900895BC
:100B10001F93CF93DF93282F30E0F901EE51FE4F62
:100B20008491F901E456FE4FD491F901EA5AFE4F3F
:100B3000C491CC23C1F0162F811182DDEC2FF0E09F
:100B4000EE0FFF1FEE5DFE4FA591B4918FB7F894A5
:100B5000111105C09C91ED2FE095E92302C0EC91A5
:100B6000ED2BEC938FBFDF91CF911F910895DF9212
:100B7000EF92FF920F931F93CF93DF93C7E0D0E0E4
:100B8000E12C01E010E060E080911D06C1DF8FE9FB
:100B90009FE00197F1F700C0000020911E0630E0B1
:100BA000F901EE51FE4F8491F901E456FE4FD490C5
:100BB000F901EA5AFE4FF490FF2069F0811140DDFF
:100BC000EF2DF0E0EE0FFF1FE45CFE4FA591B49116
:100BD000EC91ED21B1F461E080911D0699DF8FE980
:100BE0009FE00197F1F700C00000219708F0CBCFFC
:100BF0008E2DDF91CF911F910F91FF90EF90DF909D
:100C00000895C8010C2E01C0880F0A94EAF7E82A5B
:100C1000E2CFCF93DF9390E0FC01E456FE4F2491A6
:100C2000FC01EA5AFE4F8491882361F190E0880F1D
:100C3000991FFC01E85FFE4FC591D491FC01EE5D68
:100C4000FE4FA591B491611109C09FB7F8948881B6
:100C5000209582238883EC912E230BC0623061F4AF
:100C60009FB7F8943881822F809583238883EC91F5
:100C70002E2B2C939FBF06C08FB7F894E8812E2BA4
:100C800028838FBFDF91CF9108953FB7F89480916B
:100C9000250690912606A0912706B091280626B534
:100CA000A89B05C02F3F19F00196A11DB11D3FBFA4
:100CB000BA2FA92F982F8827820F911DA11DB11D32
:100CC000BC01CD0142E0660F771F881F991F4A952E
:100CD000D1F708952FB7F8946091210670912206FC
:100CE00080912306909124062FBF08951F920F92A2
:100CF0000FB60F9211242F933F938F939F93AF932F
:100D0000BF938091210690912206A0912306B09175
:100D100024063091200623E0230F2D3720F401967E
:100D2000A11DB11D05C026E8230F0296A11DB11D0E
:100D3000209320068093210690932206A0932306F9
:100D4000B09324068091250690912606A09127064F
:100D5000B09128060196A11DB11D809325069093A0
:100D60002606A0932706B0932806BF91AF919F91C6
:100D70008F913F912F910F900FBE0F901F9018955C
:100D8000CF93DF93CDB7DEB762970FB6F894DEBF8F
:100D90000FBECDBF789484B5826084BD84B5816078
:100DA00084BD85B5826085BD85B5816085BD809136
:100DB0006E00816080936E001092810080918100AE
:100DC00082608093810080918100816080938100A6
:100DD000809180008160809380008091B100846068
:100DE0008093B1008091B00081608093B0008091C9
:100DF0009100826080939100809191008160809346
:100E00009100809190008160809390008091A1007A
:100E100082608093A1008091A10081608093A100F5
:100E20008091A00081608093A00080912101826068
:100E30008093210180912101816080932101809123
:100E4000200181608093200180917A0084608093EA
:100E50007A0080917A00826080937A0080917A0093
:100E6000816080937A0080917A00806880937A0014
:100E70001092C10061E084E0CCDE60E084E048DEF6
:100E800061E081E4C6DE61E081E442DE61E082E4AB
:100E9000C0DE60E082E43CDEF8DE4B015C0174EF12
:100EA000C72EDD24D394E12CF12CEFDEDC01CB0145
:100EB00088199909AA09BB09883E9340A105B10583
:100EC00058F021E0C21AD108E108F10838EE830E8B
:100ED00033E0931EA11CB11CC114D104E104F10440
:100EE00021F7ECE7F2E080E090E0A0EAB0E4819343
:100EF0009193A193B19353E0E434F507C1F71092B5
:100F000078021092790210927A0210927B0281E0AC
:100F100090E0ECDB10921306109214061092150666
:100F200010921606812C912C6AEFA62E64E4B62E40
:100F30008092170690921806A0921906B0921A068F
:100F400080911B06882309F456C00091FF0510917B
:100F50000006D801CD90DD90ED90FC90A5019401A4
:100F6000C701B6010E947D12181634F4F801808280
:100F70009182A282B3820FC020E030E0A901C701B4
:100F8000B6010E94331187FF06C0D8011D921D9241
:100F90001D921C9213978090070690900806A090CF
:100FA0000906B0900A06C0901706D0901806E09087
:100FB0001906F0901A06A7019601C501B4010E9416
:100FC0007D12181684F0C0901306D0901406E0909D
:100FD0001506F0901606A7019601C501B4010E94FE
:100FE000331187FF08C0C0920706D0920806E0922E
:100FF0000906F0920A0680914403882331F010928A
:1010000044037BDA81E080934403109245031092FD
:1010100046031092470310924803E0915903F09160
:101020005A0382E08083E0915503F09156031082C9
:10103000E0915703F09158038FEC80831092610385
:10104000E0915D03F0915E0386E08083E0915B03B5
:10105000F0915C03808180618083E0915B03F0917B
:101060005C03808188608083E0915B03F0915C0386
:10107000808180688083E0915B03F0915C038081D4
:101080008F7D80832224239425DE6D877E878F8742
:10109000988B10914403112309F4D4C31092C8050E
:1010A0008091C5059091C6050A9744F08091F6039A
:1010B000882321F01092F603B2DC38C60BDE698378
:1010C0007A838B839C838091FF0390910004A0918D
:1010D0000104B091020449815A816B817C81481BD3
:1010E000590B6A0B7B0B8091030490910404092E29
:1010F000000CAA0BBB0B481759076A077B0708F4BB
:1011000032C229813A814B815C812093FF03309365
:1011100000044093010450930204E091E803F0912D
:10112000E903C080D180E280F3802092C8058091DD
:10113000F603811144C01092080410920704109223
:10114000C6051092C5051092C705C092C905D09278
:10115000CA05E092CB05F092CC05C092CD05D092A5
:10116000CE05E092CF05F092D005C092EC03D0926C
:10117000ED03E092EE03F092EF032092F603A090CD
:10118000EA03B090EB03D5016D917D918D919C9117
:101190006093D5057093D6058093D7059093D805B5
:1011A0002091D1053091D2054091D3055091D405BD
:1011B000F6D7F50160837183828393832CC02091DD
:1011C000C9053091CA054091CB055091CC05C701A6
:1011D000B6010E947D12181644F4C092C905D0923F
:1011E000CA05E092CB05F092CC052091CD05309157
:1011F000CE054091CF055091D005C701B6010E94A0
:10120000331187FF08C0C092CD05D092CE05E09281
:10121000CF05F092D0058090EC039090ED03A09064
:10122000EE03B090EF034090F0035090F103609014
:10123000F2037090F303A3019201C501B401AFD78B
:101240009B01AC01C701B6010E947D121816E4F49F
:10125000A090EA03B090EB032091D1053091D20524
:101260004091D3055091D4056091D5057091D60574
:101270008091D7059091D80591D7D5016D937D9335
:101280008D939C93139726C0A3019201C501B401CD
:1012900085D79B01AC01C701B601E5D787FF1AC00E
:1012A000A090EA03B090EB032091D1053091D205D4
:1012B0004091D3055091D4056091D5057091D60524
:1012C0008091D7059091D8056AD7F5016083718325
:1012D000828393832092E6032092E70340900504E3
:1012E000509006043201F1E06F1A710801E0C2016A
:1012F000880F991F880F991F9C01275F3B4F3E83E2
:101300002D8377FC29C0AD81BE81BE90AE909E90AA
:101310008E90BE83AD83002351F001E0A5019401BE
:10132000C701B6010E947D1218160CF000E01123CF
:1013300049F0A5019401C701B60195D7182F111FD7
:101340001127111FED81FE8184829582A682B782CA
:10135000F1E06F1A7108D5CF1093E7030093E6030D
:10136000C0920904D0920A04E0920B04F0920C049B
:1013700029E0421651040CF4F6C0002309F43FC0E2
:101380008091070490910804892B31F441E050E0EA
:101390005093080440930704809107049091080437
:1013A0000196C1F481E090E09093080480930704D3
:1013B0002092C7058091F7039091F803A091F9035B
:1013C000B091FA038093FB039093FC03A093FD0379
:1013D000B093FE0329813A814B815C812093F7030E
:1013E0003093F8034093F9035093FA03E091C50555
:1013F000F091C605EE0FFF1FEE0FFF1F31C0112346
:10140000A9F18091070490910804892B31F44FEFE2
:101410005FEF509308044093070480910704909174
:101420000804019789F48FEF9FEF9093080480934D
:1014300007048091C5059091C60501969093C60555
:101440008093C5052092C7058091C5059091C6057A
:101450008A3091055CF4880F991F880F991FFC0151
:10146000E356FA4FC082D182E282F3828091C705AF
:10147000882309F476C00091C5051091C605033094
:1014800011050CF46EC0F801EE0FFF1FEE0FFF1FE9
:10149000EB56FA4F80809180A280B380F801EE0F66
:1014A000FF1FEE0FFF1FE756FA4FA5019401608161
:1014B00071818281938172D66B017C0120E030E0E2
:1014C000A9010E947D12181624F0F7FAF094F7F89B
:1014D000F094000F111F000F111FF801EF56FA4F83
:1014E0002081318142815381C501B40157D64B011E
:1014F0005C0120E030E0A9010E947D12181624F062
:10150000B7FAB094B7F8B094A5019401C701B60139
:1015100046D620E030E040E05FE3F3D76B017C018A
:101520002091CD053091CE054091CF055091D00549
:101530006091C9057091CA058091CB059091CC0549
:101540002DD62DEC3CEC4CE45DE3DBD79B01AC01EC
:10155000C701B60188D687FF04C061DA1092F6038E
:10156000E5C31092C705809144038111A4C2009184
:10157000F4031091F5030130110529F42AE939E942
:1015800049E15FE304C02DEC3CEC4CEC5EE3609180
:10159000D9057091DA058091DB059091DC05B1D712
:1015A0006B017C0160930D0270930E0280930F0219
:1015B000909310020130110529F42AE939E949E92B
:1015C0005FE304C02FE832EC45EF5EE36091D9059C
:1015D0007091DA058091DB059091DC0592D720911E
:1015E000DD053091DE054091DF055091E0053FD6E5
:1015F0004B015C01609311027093120280931302FD
:101600009093140201301105C9F42AE939E949E936
:101610005DE36091D9057091DA058091DB059091C9
:10162000DC056FD72091DD053091DE054091DF05A7
:101630005091E00566D72B013C0103C0412C512C91
:101640003201409215025092160260921702709277
:1016500018020091FB051091FC0520E030E0A90183
:10166000C701B60100D687FD99C020E030E0A9018E
:10167000C501B401F8D587FD91C020E030E0A90193
:10168000C301B201F0D587FD89C081E001301105A9
:1016900009F080E080931C06C092E105D092E2053B
:1016A000E092E305F092E4058092E5059092E6056C
:1016B000A092E705B092E8054092E9055092EA054C
:1016C0006092EB057092EC0560910F067091100628
:1016D00080911106909112065ED620E030E04AE734
:1016E00054E4C5D569837A838B839C83C092ED05CE
:1016F000D092EE05E092EF05F092F0059B01AC016F
:10170000C501B401FED64B015C016093F1057093F5
:10171000F2058093F3059093F40529813A814B817A
:101720005C81C301B201A3D52B013C016093F50597
:101730007093F6058093F7059093F8058091F9056D
:101740009091FA05019751F5A701960160E070E0CC
:10175000CB0124D56093ED057093EE058093EF05E2
:101760009093F005A501940160E070E0CB0116D5DF
:101770006093F1057093F2058093F3059093F4055F
:10178000A301920160E070E0CB0108D56093F505FC
:101790007093F6058093F7059093F80511E080911A
:1017A0000002813011F010E04AC080911B068111C7
:1017B00046C0E091FF05F0910006C080D180E28034
:1017C000F380C0920706D0920806E0920906F092D4
:1017D0000A06E091FD05F091FE0580819181A281CC
:1017E000B38180930B0690930C06A0930D06B093E3
:1017F0000E068090170690901806A0901906B090DB
:101800001A06A5019401C701B60177D618167CF017
:101810008090130690901406A0901506B0901606BE
:10182000A5019401C701B6011ED587FF08C08092AB
:10183000070690920806A0920906B0920A06109335
:101840001B0639C180911B06882309F434C142DA92
:1018500069837A838B839C8380910306909104062D
:10186000A0910506B091060649815A816B817C8161
:10187000481B590B6A0B7B0B80910F069091100649
:10188000A0911106B0911206481759076A077B0705
:1018900008F411C1E091FD05F091FE0540805180F2
:1018A00062807380E0910106F0910206A30192012B
:1018B000608171818281938171D46B017C0120915F
:1018C0000B0630910C0640910D0650910E06C30197
:1018D000B20164D46D837E838F8398872091F10554
:1018E0003091F2054091F3055091F405C701B6011E
:1018F00008D62091070630910806409109065091BC
:101900000A064DD44B015C016093070670930806EC
:101910008093090690930A0630901C0631101AC075
:101920002091ED053091EE054091EF055091F005C5
:101930006D817E818F819885E4D59B01AC01C501C5
:10194000B4012CD4609307067093080680930906AF
:1019500090930A06209107063091080640910906E7
:1019600050910A0629873A874B875C8700911706B2
:1019700010911806309119063A8B40911A06498B3E
:1019800098014A89598969857A858B859C85B5D561
:10199000181664F4C801AA89B98980930706909340
:1019A0000806A0930906B0930A0619C08090130692
:1019B00090901406A0901506B0901606A50194010B
:1019C00069857A858B859C854ED487FF08C0809277
:1019D000070690920806A0920906B0920A063320E4
:1019E00071F02091ED053091EE054091EF05509199
:1019F000F005C701B60185D56B017C0103C0C12C80
:101A0000D12C76012091F5053091F6054091F7052E
:101A10005091F8056D817E818F81988572D59B01EB
:101A2000AC016091070670910806809109069091BB
:101A30000A06B4D39B01AC01C701B601B0D36B0158
:101A40007C0198014A89598958D51816ACF0009143
:101A5000130610911406509115065A8B80911606A4
:101A6000898B9801452F582FB601C701FCD387FDFC
:101A700003C08601EA8AF98AE091FF05F091000629
:101A8000C801AA89B98980839183A283B3834092D4
:101A90000B0650920C0660920D0670920E0629817C
:101AA0003A814B815C812093030630930406409376
:101AB0000506509306068091050290910602A091BA
:101AC0000702B09108028093F4029093F502A0936C
:101AD000F602B093F7028091780290917902A0917A
:101AE0007A02B0917B022D853E854F855889281753
:101AF00039074A075B0708F45FC08C599F4FAF4F07
:101B0000BF4F8093780290937902A0937A02B093AA
:101B10007B02ECE7F2E084819581A681B781819315
:101B20009193A193B19333E0E034F307A1F720E060
:101B300030E040EA50E460917C0270917D02809137
:101B40007E0290917F022AD32FE832EC45E75CE3D6
:101B5000D8D46B017C0124EA30E74DE75FE3609164
:101B6000090270910A0280910B0290910C02C9D473
:101B70009B01AC01C701B60112D36B017C01A5D258
:101B800024E130E040E050E0ACD26A5071098109B4
:101B9000910903D420E030E048EC52E468D39B0183
:101BA000AC01C701B601FBD26093090270930A022F
:101BB00080930B0290930C028DD8009145031091F5
:101BC000460320914703309148030617170728075B
:101BD000390708F0A8C089E493E00E94A601892B88
:101BE00099F089E493E00E948401182F89E493E03E
:101BF0000E94220290914403113319F4911104C000
:101C000001C091110E947D0281E392E00E940E05C5
:101C1000609101027091020280910302909104028E
:101C200042E00E942D0489E692E00E940E058CE3BA
:101C300092E00E940E056091090270910A02809163
:101C40000B0290910C0242E00E942D0489E692E082
:101C50000E940E0584E492E00E940E056091050248
:101C600070910602809107029091080242E00E9462
:101C70002D0489E692E00E940E058091440388239A
:101C800029F08DE492E00E94DC0335C08CE592E0FF
:101C90000E940E056091E1057091E2058091E305D7
:101CA0009091E40542E00E942D0489E692E00E94B2
:101CB0000E0581E692E00E940E056091E5057091A7
:101CC000E6058091E7059091E80542E00E942D0429
:101CD00089E692E00E940E0586E692E00E940E05DB
:101CE0006091E9057091EA058091EB059091EC0512
:101CF00042E00E942D0489E592E00E94DC0380917D
:101D0000450390914603A0914703B09148038C503E
:101D10009E4FAF4FBF4F8093450390934603A093D0
:101D20004703B09348030E944302AEC91092440394
:101D30001ACC4F925F926F927F928F929F92AF9246
:101D4000BF92CF92DF92EF92FF9210924C031092CB
:101D50004B0388EE93E0A0E0B0E080934D039093B6
:101D60004E03A0934F03B093500381E292E090930F
:101D70004A038093490385EC90E090935603809347
:101D8000550384EC90E0909358038093570380ECC4
:101D900090E090935A038093590381EC90E09093E4
:101DA0005C0380935B0382EC90E090935E038093EE
:101DB0005D0386EC90E09093600380935F03109244
:101DC000620310926303109264031092650380ED26
:101DD00097E090932A068093290680E480931D065D
:101DE0008FE380931F068EE380931E0661E08FE3EE
:101DF0000E94090661E080911D060E94090660E0CC
:101E000080911E060E94090661E080911F060E94D3
:101E10008805C0901502D0901602E0901702F0904D
:101E200018028090110290901202A0901302B090BC
:101E3000140240900D0250900E0260900F027090BC
:101E4000100285E092E0909300068093FF0589E000
:101E500092E09093FE058093FD0581E092E09093DF
:101E600002068093010610921B0610921306109230
:101E70001406109215061092160680E090E0AFE767
:101E8000B3E48093170690931806A0931906B093B5
:101E90001A0684E690E0A0E0B0E080930F069093ED
:101EA0001006A0931106B09312061092FA05109234
:101EB000F90520E030E0A901C301B201D4D187FDCA
:101EC00056C020E030E0A901C501B401CCD187FDA6
:101ED0004EC020E030E0A901C701B601C4D187FDA2
:101EE00046C081E090E09093FC058093FB058093D1
:101EF0001C064092E1055092E2056092E305709263
:101F0000E4058092E5059092E605A092E705B0927F
:101F1000E805C092E905D092EA05E092EB05F0925F
:101F2000EC054092ED055092EE056092EF0570923F
:101F3000F0052DEC3CEC4CEC5DE3C501B401E1D2C5
:101F40006093F1057093F2058093F3059093F40587
:101F50002DEC3CEC4CEC5DE3C701B60188D16093FD
:101F6000F5057093F6058093F7059093F8050E94A8
:101F70006A06C0900F06D0901006E0901106F0900F
:101F80001206DC01CB018C199D09AE09BF098093B3
:101F9000030690930406A0930506B093060689E015
:101FA00092E09093E9038093E80385E092E09093B8
:101FB000EB038093EA031092F5031092F40380E0A0
:101FC00090E0A0E0BFE38093F0039093F103A0932F
:101FD000F203B093F3031092F60380E090E0A0EFD9
:101FE000B1E48093D1059093D205A093D305B0932B
:101FF000D40588E290E090930604809305048AEF6C
:1020000090E090930404809303040E946A06609316
:10201000FF03709300048093010490930204FF90E7
:10202000EF90DF90CF90BF90AF909F908F907F9078
:102030006F905F904F9008958F929F92AF92BF9252
:10204000CF92DF92EF92FF92CF93DF93EC01688102
:1020500079818A819B81611571058105910521F442
:1020600064E279ED8BE597E02DE133EF41E050E05C
:1020700038D049015A019B01AC01A7EAB1E44DD027
:102080006B017C01ACEEB4EFA501940152D0DC01F0
:10209000CB018C0D9D1DAE1DBF1DB7FF03C0019769
:1020A000A109B04888839983AA83BB83BC01CD0171
:1020B0009F77DF91CF91FF90EF90DF90CF90BF900F
:1020C000AF909F908F900895B7CF89E192E0B4CF01
:1020D0006093190270931A0280931B0290931C0262
:1020E0000895052E97FB16F400940FD057FD05D0E8
:1020F00024D007FC02D046F408C050954095309596
:1021000021953F4F4F4F5F4F089590958095709563
:1021100061957F4F8F4F9F4F089531D0A59F900DB0
:10212000B49F900DA49F800D911D11240895B7FFB9
:10213000F4CFF3DF821B930B0895A1E21A2EAA1BA2
:10214000BB1BFD010DC0AA1FBB1FEE1FFF1FA21767
:10215000B307E407F50720F0A21BB30BE40BF50B64
:10216000661F771F881F991F1A9469F760957095ED
:10217000809590959B01AC01BD01CF010895A29F70
:10218000B001B39FC001A39F700D811D1124911D4B
:10219000B29F700D811D1124911D08955058BB27C9
:1021A000AA270ED070C161D130F066D120F031F491
:1021B0009F3F11F41EF456C10EF4E095E7FB4CC1AD
:1021C000E92F72D180F3BA17620773078407950766
:1021D00018F071F49EF58AC10EF4E0950B2EBA2F1B
:1021E000A02D0B01B90190010C01CA01A00111241D
:1021F000FF27591B99F0593F50F4503E68F11A16C9
:10220000F040A22F232F342F4427585FF3CF469559
:1022100037952795A795F0405395C9F77EF41F167B
:10222000BA0B620B730B840BBAF09150A1F0FF0F45
:10223000BB1F661F771F881FC2F70EC0BA0F621F31
:10224000731F841F48F4879577956795B795F79521
:102250009E3F08F0B3CF9395880F08F09927EE0FB3
:10226000979587950895D4D008F481E008950CD00F
:102270000AC102D140F0F9D030F021F45F3F19F0EB
:10228000EBC0511134C1EEC00FD198F39923C9F3BB
:102290005523B1F3951B550BBB27AA27621773076C
:1022A000840738F09F5F5F4F220F331F441FAA1F20
:1022B000A9F333D00E2E3AF0E0E830D091505040E0
:1022C000E695001CCAF729D0FE2F27D0660F771F8E
:1022D000881FBB1F261737074807AB07B0E809F070
:1022E000BB0B802DBF01FF2793585F4F2AF09E3F05
:1022F000510568F0B1C0FBC05F3FECF3983EDCF3E2
:10230000869577956795B795F7959F5FC9F7880F7D
:10231000911D9695879597F90895E1E0660F771FCF
:10232000881FBB1F621773078407BA0720F0621B60
:10233000730B840BBA0BEE1F88F7E0950895BCD0A1
:1023400088F09F5790F0B92F9927B751A0F0D1F09E
:10235000660F771F881F991F1AF0BA95C9F712C028
:10236000B13081F0C3D0B1E00895C0C0672F782F9D
:102370008827B85F39F0B93FCCF386957795679594
:10238000B395D9F73EF490958095709561957F4F00
:102390008F4F9F4F0895E89409C097FB3EF49095A6
:1023A0008095709561957F4F8F4F9F4F9923A9F02E
:1023B000F92F96E9BB279395F695879577956795BD
:1023C000B795F111F8CFFAF4BB0F11F460FF1BC001
:1023D0006F5F7F4F8F4F9F4F16C0882311F096E994
:1023E00011C0772321F09EE8872F762F05C0662342
:1023F00071F096E8862F70E060E02AF09A95660FFB
:10240000771F881FDAF7880F9695879597F90895B3
:10241000990F0008550FAA0BE0E8FEEF16161706F5
:10242000E807F907C0F012161306E407F50798F05D
:10243000621B730B840B950B39F40A2661F0232B76
:10244000242B252B21F408950A2609F4A140A695F2
:102450008FEF811D811D089597F99F6780E870E0D7
:1024600060E008959FEF80EC089500240A9416160A
:10247000170618060906089500240A941216130672
:10248000140605060895092E0394000C11F4882300
:1024900052F0BB0F40F4BF2B11F460FF04C06F5F1C
:1024A0007F4F8F4F9F4F089557FD9058440F551FF2
:1024B00059F05F3F71F04795880F97FB991F61F0C6
:1024C0009F3F79F087950895121613061406551F3D
:1024D000F2CF4695F1DF08C0161617061806991FA9
:1024E000F1CF86957105610508940895E894BB279E
:1024F00066277727CB0197F908958ADF08F48FEFD5
:1025000008950BD0C0CFB1DF28F0B6DF18F09523C7
:1025100009F0A2CFA7CF1124EACFC6DFA0F3959F81
:10252000D1F3950F50E0551F629FF001729FBB27BA
:10253000F00DB11D639FAA27F00DB11DAA1F649F66
:102540006627B00DA11D661F829F2227B00DA11D19
:10255000621F739FB00DA11D621F839FA00D611D9F
:10256000221F749F3327A00D611D231F849F600DC0
:10257000211D822F762F6A2F11249F5750408AF0F9
:10258000E1F088234AF0EE0FFF1FBB1F661F771F85
:10259000881F91505040A9F79E3F510570F05CCFC5
:1025A000A6CF5F3FECF3983EDCF386957795679571
:1025B000B795F795E7959F5FC1F7FE2B880F911DA3
:1025C0009695879597F9089523DF880B990B0895C1
:1025D000EE0FFF1F881F8BBF0790F691E02D199417
:0C25E00081E090E0F89400C0F894FFCF78
:1025EC000200003443000048420000A0420000A05A
:1025FC00400000003F00000040010000000000000F
:10260C0000DC01460175012202A60184019801D06B
:10261C0007736574706F696E743A2000696E70751B
:10262C00743A20006F75747075743A200074756E6E
:10263C00696E67206D6F6465000D0A006B703A203F
:10264C00006B693A20006B643A20006E616E006981
:08265C006E66006F7666000057
:00000001FF
